{
  "_format": "hh-sol-artifact-1",
  "contractName": "TradeableCashflow",
  "sourceName": "contracts/NFT.sol",
  "abi": [
    {
      "inputs": [
        {
          "internalType": "address",
          "name": "owner",
          "type": "address"
        },
        {
          "internalType": "string",
          "name": "_name",
          "type": "string"
        },
        {
          "internalType": "string",
          "name": "_symbol",
          "type": "string"
        },
        {
          "internalType": "contract ISuperfluid",
          "name": "host",
          "type": "address"
        },
        {
          "internalType": "contract IConstantFlowAgreementV1",
          "name": "cfa",
          "type": "address"
        },
        {
          "internalType": "contract ISuperToken",
          "name": "acceptedToken",
          "type": "address"
        },
        {
          "internalType": "address",
          "name": "receiver",
          "type": "address"
        }
      ],
      "stateMutability": "nonpayable",
      "type": "constructor"
    },
    {
      "anonymous": false,
      "inputs": [
        {
          "indexed": true,
          "internalType": "address",
          "name": "owner",
          "type": "address"
        },
        {
          "indexed": true,
          "internalType": "address",
          "name": "approved",
          "type": "address"
        },
        {
          "indexed": true,
          "internalType": "uint256",
          "name": "tokenId",
          "type": "uint256"
        }
      ],
      "name": "Approval",
      "type": "event"
    },
    {
      "anonymous": false,
      "inputs": [
        {
          "indexed": true,
          "internalType": "address",
          "name": "owner",
          "type": "address"
        },
        {
          "indexed": true,
          "internalType": "address",
          "name": "operator",
          "type": "address"
        },
        {
          "indexed": false,
          "internalType": "bool",
          "name": "approved",
          "type": "bool"
        }
      ],
      "name": "ApprovalForAll",
      "type": "event"
    },
    {
      "anonymous": false,
      "inputs": [
        {
          "indexed": false,
          "internalType": "address",
          "name": "receiver",
          "type": "address"
        }
      ],
      "name": "ReceiverChanged",
      "type": "event"
    },
    {
      "anonymous": false,
      "inputs": [
        {
          "indexed": true,
          "internalType": "address",
          "name": "from",
          "type": "address"
        },
        {
          "indexed": true,
          "internalType": "address",
          "name": "to",
          "type": "address"
        },
        {
          "indexed": true,
          "internalType": "uint256",
          "name": "tokenId",
          "type": "uint256"
        }
      ],
      "name": "Transfer",
      "type": "event"
    },
    {
      "inputs": [],
      "name": "_host",
      "outputs": [
        {
          "internalType": "contract ISuperfluid",
          "name": "",
          "type": "address"
        }
      ],
      "stateMutability": "view",
      "type": "function"
    },
    {
      "inputs": [],
      "name": "_receiver",
      "outputs": [
        {
          "internalType": "address",
          "name": "",
          "type": "address"
        }
      ],
      "stateMutability": "view",
      "type": "function"
    },
    {
      "inputs": [
        {
          "internalType": "contract ISuperToken",
          "name": "_superToken",
          "type": "address"
        },
        {
          "internalType": "address",
          "name": "_agreementClass",
          "type": "address"
        },
        {
          "internalType": "bytes32",
          "name": "",
          "type": "bytes32"
        },
        {
          "internalType": "bytes",
          "name": "",
          "type": "bytes"
        },
        {
          "internalType": "bytes",
          "name": "",
          "type": "bytes"
        },
        {
          "internalType": "bytes",
          "name": "_ctx",
          "type": "bytes"
        }
      ],
      "name": "afterAgreementCreated",
      "outputs": [
        {
          "internalType": "bytes",
          "name": "newCtx",
          "type": "bytes"
        }
      ],
      "stateMutability": "nonpayable",
      "type": "function"
    },
    {
      "inputs": [
        {
          "internalType": "contract ISuperToken",
          "name": "_superToken",
          "type": "address"
        },
        {
          "internalType": "address",
          "name": "_agreementClass",
          "type": "address"
        },
        {
          "internalType": "bytes32",
          "name": "",
          "type": "bytes32"
        },
        {
          "internalType": "bytes",
          "name": "",
          "type": "bytes"
        },
        {
          "internalType": "bytes",
          "name": "",
          "type": "bytes"
        },
        {
          "internalType": "bytes",
          "name": "_ctx",
          "type": "bytes"
        }
      ],
      "name": "afterAgreementTerminated",
      "outputs": [
        {
          "internalType": "bytes",
          "name": "newCtx",
          "type": "bytes"
        }
      ],
      "stateMutability": "nonpayable",
      "type": "function"
    },
    {
      "inputs": [
        {
          "internalType": "contract ISuperToken",
          "name": "_superToken",
          "type": "address"
        },
        {
          "internalType": "address",
          "name": "_agreementClass",
          "type": "address"
        },
        {
          "internalType": "bytes32",
          "name": "",
          "type": "bytes32"
        },
        {
          "internalType": "bytes",
          "name": "",
          "type": "bytes"
        },
        {
          "internalType": "bytes",
          "name": "",
          "type": "bytes"
        },
        {
          "internalType": "bytes",
          "name": "_ctx",
          "type": "bytes"
        }
      ],
      "name": "afterAgreementUpdated",
      "outputs": [
        {
          "internalType": "bytes",
          "name": "newCtx",
          "type": "bytes"
        }
      ],
      "stateMutability": "nonpayable",
      "type": "function"
    },
    {
      "inputs": [
        {
          "internalType": "address",
          "name": "to",
          "type": "address"
        },
        {
          "internalType": "uint256",
          "name": "tokenId",
          "type": "uint256"
        }
      ],
      "name": "approve",
      "outputs": [],
      "stateMutability": "nonpayable",
      "type": "function"
    },
    {
      "inputs": [
        {
          "internalType": "address",
          "name": "owner",
          "type": "address"
        }
      ],
      "name": "balanceOf",
      "outputs": [
        {
          "internalType": "uint256",
          "name": "",
          "type": "uint256"
        }
      ],
      "stateMutability": "view",
      "type": "function"
    },
    {
      "inputs": [],
      "name": "baseURI",
      "outputs": [
        {
          "internalType": "string",
          "name": "",
          "type": "string"
        }
      ],
      "stateMutability": "view",
      "type": "function"
    },
    {
      "inputs": [
        {
          "internalType": "contract ISuperToken",
          "name": "",
          "type": "address"
        },
        {
          "internalType": "address",
          "name": "",
          "type": "address"
        },
        {
          "internalType": "bytes32",
          "name": "",
          "type": "bytes32"
        },
        {
          "internalType": "bytes",
          "name": "",
          "type": "bytes"
        },
        {
          "internalType": "bytes",
          "name": "",
          "type": "bytes"
        }
      ],
      "name": "beforeAgreementCreated",
      "outputs": [
        {
          "internalType": "bytes",
          "name": "",
          "type": "bytes"
        }
      ],
      "stateMutability": "view",
      "type": "function"
    },
    {
      "inputs": [
        {
          "internalType": "contract ISuperToken",
          "name": "",
          "type": "address"
        },
        {
          "internalType": "address",
          "name": "",
          "type": "address"
        },
        {
          "internalType": "bytes32",
          "name": "",
          "type": "bytes32"
        },
        {
          "internalType": "bytes",
          "name": "",
          "type": "bytes"
        },
        {
          "internalType": "bytes",
          "name": "",
          "type": "bytes"
        }
      ],
      "name": "beforeAgreementTerminated",
      "outputs": [
        {
          "internalType": "bytes",
          "name": "",
          "type": "bytes"
        }
      ],
      "stateMutability": "view",
      "type": "function"
    },
    {
      "inputs": [
        {
          "internalType": "contract ISuperToken",
          "name": "",
          "type": "address"
        },
        {
          "internalType": "address",
          "name": "",
          "type": "address"
        },
        {
          "internalType": "bytes32",
          "name": "",
          "type": "bytes32"
        },
        {
          "internalType": "bytes",
          "name": "",
          "type": "bytes"
        },
        {
          "internalType": "bytes",
          "name": "",
          "type": "bytes"
        }
      ],
      "name": "beforeAgreementUpdated",
      "outputs": [
        {
          "internalType": "bytes",
          "name": "",
          "type": "bytes"
        }
      ],
      "stateMutability": "view",
      "type": "function"
    },
    {
      "inputs": [
        {
          "internalType": "string",
          "name": "_tokenURI",
          "type": "string"
        }
      ],
      "name": "changeURI",
      "outputs": [],
      "stateMutability": "nonpayable",
      "type": "function"
    },
    {
      "inputs": [],
      "name": "currentReceiver",
      "outputs": [
        {
          "internalType": "uint256",
          "name": "startTime",
          "type": "uint256"
        },
        {
          "internalType": "address",
          "name": "receiver",
          "type": "address"
        },
        {
          "internalType": "int96",
          "name": "flowRate",
          "type": "int96"
        }
      ],
      "stateMutability": "view",
      "type": "function"
    },
    {
      "inputs": [
        {
          "internalType": "uint256",
          "name": "_tokenId",
          "type": "uint256"
        }
      ],
      "name": "destroyNFT",
      "outputs": [],
      "stateMutability": "nonpayable",
      "type": "function"
    },
    {
      "inputs": [
        {
          "internalType": "uint256",
          "name": "tokenId",
          "type": "uint256"
        }
      ],
      "name": "getApproved",
      "outputs": [
        {
          "internalType": "address",
          "name": "",
          "type": "address"
        }
      ],
      "stateMutability": "view",
      "type": "function"
    },
    {
      "inputs": [
        {
          "internalType": "address",
          "name": "owner",
          "type": "address"
        },
        {
          "internalType": "address",
          "name": "operator",
          "type": "address"
        }
      ],
      "name": "isApprovedForAll",
      "outputs": [
        {
          "internalType": "bool",
          "name": "",
          "type": "bool"
        }
      ],
      "stateMutability": "view",
      "type": "function"
    },
    {
      "inputs": [],
      "name": "name",
      "outputs": [
        {
          "internalType": "string",
          "name": "",
          "type": "string"
        }
      ],
      "stateMutability": "view",
      "type": "function"
    },
    {
      "inputs": [
        {
          "internalType": "uint256",
          "name": "tokenId",
          "type": "uint256"
        }
      ],
      "name": "ownerOf",
      "outputs": [
        {
          "internalType": "address",
          "name": "",
          "type": "address"
        }
      ],
      "stateMutability": "view",
      "type": "function"
    },
    {
      "inputs": [
        {
          "internalType": "address",
          "name": "from",
          "type": "address"
        },
        {
          "internalType": "address",
          "name": "to",
          "type": "address"
        },
        {
          "internalType": "uint256",
          "name": "tokenId",
          "type": "uint256"
        }
      ],
      "name": "safeTransferFrom",
      "outputs": [],
      "stateMutability": "nonpayable",
      "type": "function"
    },
    {
      "inputs": [
        {
          "internalType": "address",
          "name": "from",
          "type": "address"
        },
        {
          "internalType": "address",
          "name": "to",
          "type": "address"
        },
        {
          "internalType": "uint256",
          "name": "tokenId",
          "type": "uint256"
        },
        {
          "internalType": "bytes",
          "name": "_data",
          "type": "bytes"
        }
      ],
      "name": "safeTransferFrom",
      "outputs": [],
      "stateMutability": "nonpayable",
      "type": "function"
    },
    {
      "inputs": [
        {
          "internalType": "address",
          "name": "operator",
          "type": "address"
        },
        {
          "internalType": "bool",
          "name": "approved",
          "type": "bool"
        }
      ],
      "name": "setApprovalForAll",
      "outputs": [],
      "stateMutability": "nonpayable",
      "type": "function"
    },
    {
      "inputs": [
        {
          "internalType": "bytes4",
          "name": "interfaceId",
          "type": "bytes4"
        }
      ],
      "name": "supportsInterface",
      "outputs": [
        {
          "internalType": "bool",
          "name": "",
          "type": "bool"
        }
      ],
      "stateMutability": "view",
      "type": "function"
    },
    {
      "inputs": [],
      "name": "symbol",
      "outputs": [
        {
          "internalType": "string",
          "name": "",
          "type": "string"
        }
      ],
      "stateMutability": "view",
      "type": "function"
    },
    {
      "inputs": [
        {
          "internalType": "uint256",
          "name": "index",
          "type": "uint256"
        }
      ],
      "name": "tokenByIndex",
      "outputs": [
        {
          "internalType": "uint256",
          "name": "",
          "type": "uint256"
        }
      ],
      "stateMutability": "view",
      "type": "function"
    },
    {
      "inputs": [
        {
          "internalType": "address",
          "name": "owner",
          "type": "address"
        },
        {
          "internalType": "uint256",
          "name": "index",
          "type": "uint256"
        }
      ],
      "name": "tokenOfOwnerByIndex",
      "outputs": [
        {
          "internalType": "uint256",
          "name": "",
          "type": "uint256"
        }
      ],
      "stateMutability": "view",
      "type": "function"
    },
    {
      "inputs": [
        {
          "internalType": "uint256",
          "name": "tokenId",
          "type": "uint256"
        }
      ],
      "name": "tokenURI",
      "outputs": [
        {
          "internalType": "string",
          "name": "",
          "type": "string"
        }
      ],
      "stateMutability": "view",
      "type": "function"
    },
    {
      "inputs": [],
      "name": "totalSupply",
      "outputs": [
        {
          "internalType": "uint256",
          "name": "",
          "type": "uint256"
        }
      ],
      "stateMutability": "view",
      "type": "function"
    },
    {
      "inputs": [
        {
          "internalType": "address",
          "name": "from",
          "type": "address"
        },
        {
          "internalType": "address",
          "name": "to",
          "type": "address"
        },
        {
          "internalType": "uint256",
          "name": "tokenId",
          "type": "uint256"
        }
      ],
      "name": "transferFrom",
      "outputs": [],
      "stateMutability": "nonpayable",
      "type": "function"
    },
    {
      "inputs": [],
      "name": "uData",
      "outputs": [
        {
          "internalType": "uint8",
          "name": "appLevel",
          "type": "uint8"
        },
        {
          "internalType": "uint8",
          "name": "callType",
          "type": "uint8"
        },
        {
          "internalType": "uint256",
          "name": "timestamp",
          "type": "uint256"
        },
        {
          "internalType": "address",
          "name": "msgSender",
          "type": "address"
        },
        {
          "internalType": "bytes4",
          "name": "agreementSelector",
          "type": "bytes4"
        },
        {
          "internalType": "bytes",
          "name": "userData",
          "type": "bytes"
        },
        {
          "internalType": "uint256",
          "name": "appAllowanceGranted",
          "type": "uint256"
        },
        {
          "internalType": "uint256",
          "name": "appAllowanceWanted",
          "type": "uint256"
        },
        {
          "internalType": "int256",
          "name": "appAllowanceUsed",
          "type": "int256"
        },
        {
          "internalType": "address",
          "name": "appAddress",
          "type": "address"
        },
        {
          "internalType": "contract ISuperfluidToken",
          "name": "appAllowanceToken",
          "type": "address"
        }
      ],
      "stateMutability": "view",
      "type": "function"
    },
    {
      "inputs": [],
      "name": "userData",
      "outputs": [
        {
          "internalType": "string",
          "name": "",
          "type": "string"
        }
      ],
      "stateMutability": "view",
      "type": "function"
    }
  ],
  "bytecode": "0x60806040523480156200001157600080fd5b5060405162003aac38038062003aac8339810160408190526200003491620005f2565b8585620000486301ffc9a760e01b620001e0565b81516200005d906006906020850190620004af565b50805162000073906007906020840190620004af565b50620000866380ac58cd60e01b620001e0565b62000098635b5e139f60e01b620001e0565b620000aa63780e9d6360e01b620001e0565b50506001600160a01b038416620000bd57fe5b6001600160a01b038316620000ce57fe5b6001600160a01b038216620000df57fe5b6001600160a01b038116620000f057fe5b600a80546001600160a01b03199081166001600160a01b038781169190911792839055600b80548316878316179055600c80548316868316179055600d8054909216848216179091556040516315a722b960e31b8152641500000001929091169063ad3915c8906200016790849060040162000769565b600060405180830381600087803b1580156200018257600080fd5b505af115801562000197573d6000803e3d6000fd5b50505050620001ae8860016200023b60201b60201c565b620001d26040518060600160405280603c815260200162003a70603c913962000329565b50505050505050506200078b565b6001600160e01b03198082161415620002165760405162461bcd60e51b81526004016200020d90620006c6565b60405180910390fd5b6001600160e01b0319166000908152602081905260409020805460ff19166001179055565b6001600160a01b038216620002645760405162461bcd60e51b81526004016200020d9062000734565b6200026f8162000342565b156200028f5760405162461bcd60e51b81526004016200020d90620006fd565b6200029d6000838362000365565b6001600160a01b0382166000908152600160209081526040909120620002ce918390620012df6200036a821b17901c565b50620002ec818360026200037f60201b620012eb179092919060201c565b5060405181906001600160a01b038416906000907fddf252ad1be2c89b69c2b068fc378daa952ba7f163c4a11628f55a4df523b3ef908290a45050565b80516200033e906009906020840190620004af565b5050565b60006200035f8260026200039f60201b6200130b1790919060201c565b92915050565b505050565b6000620003788383620003ad565b9392505050565b60006200039784846001600160a01b038516620003fc565b949350505050565b600062000378838362000497565b6000620003bb838362000497565b620003f3575081546001818101845560008481526020808220909301849055845484825282860190935260409020919091556200035f565b5060006200035f565b6000828152600184016020526040812054806200046357505060408051808201825283815260208082018481528654600181810189556000898152848120955160029093029095019182559151908201558654868452818801909252929091205562000378565b828560000160018303815481106200047757fe5b906000526020600020906002020160010181905550600091505062000378565b60009081526001919091016020526040902054151590565b828054600181600116156101000203166002900490600052602060002090601f016020900481019282601f10620004f257805160ff191683800117855562000522565b8280016001018555821562000522579182015b828111156200052257825182559160200191906001019062000505565b506200053092915062000534565b5090565b5b8082111562000530576000815560010162000535565b600082601f8301126200055c578081fd5b81516001600160401b038082111562000573578283fd5b6040516020601f8401601f191682018101838111838210171562000595578586fd5b80604052508194508382528681858801011115620005b257600080fd5b600092505b83831015620005d65785830181015182840182015291820191620005b7565b83831115620005e85760008185840101525b5050505092915050565b600080600080600080600060e0888a0312156200060d578283fd5b87516200061a8162000772565b60208901519097506001600160401b038082111562000637578485fd5b620006458b838c016200054b565b975060408a01519150808211156200065b578485fd5b506200066a8a828b016200054b565b95505060608801516200067d8162000772565b6080890151909450620006908162000772565b60a0890151909350620006a38162000772565b60c0890151909250620006b68162000772565b8091505092959891949750929550565b6020808252601c908201527f4552433136353a20696e76616c696420696e7465726661636520696400000000604082015260600190565b6020808252601c908201527f4552433732313a20746f6b656e20616c7265616479206d696e74656400000000604082015260600190565b6020808252818101527f4552433732313a206d696e7420746f20746865207a65726f2061646472657373604082015260600190565b90815260200190565b6001600160a01b03811681146200078857600080fd5b50565b6132d5806200079b6000396000f3fe608060405234801561001057600080fd5b50600436106101da5760003560e01c80636352211e11610104578063b88d4fde116100a2578063d86ed3e511610071578063d86ed3e5146103c3578063e5e01c11146103d6578063e985e9c5146103e9578063ecf08fae146103fc576101da565b8063b88d4fde14610382578063bea6998f14610395578063c40412b51461039d578063c87b56dd146103b0576101da565b8063852e5a0a116100de578063852e5a0a1461034c578063884d1f401461035457806395d89b4114610367578063a22cb4651461036f576101da565b80636352211e1461031e5780636c0360eb1461033157806370a0823114610339576101da565b806323b872dd1161017c57806342842e0e1161014b57806342842e0e146102d25780634f6ccce7146102e557806353c11f99146102f85780635f9e7d771461030b576101da565b806323b872dd1461028257806328d2bf94146102955780632f745c59146102ac57806330d9c915146102bf576101da565b8063081812fc116101b8578063081812fc14610232578063095ea7b31461024557806318160ddd1461025a578063230dbd291461026f576101da565b806301ffc9a7146101df57806302964ff11461020857806306fdde031461021d575b600080fd5b6101f26101ed366004612521565b61041b565b6040516101ff91906129c8565b60405180910390f35b61021061043e565b6040516101ff9190612977565b61022561044d565b6040516101ff9190612a02565b6102106102403660046128ac565b6104e3565b6102586102533660046124de565b61052f565b005b6102626105c7565b6040516101ff91906130f1565b61022561027d366004612656565b6105d8565b610258610290366004612403565b61081d565b61029d610855565b6040516101ff939291906130fa565b6102626102ba3660046124de565b610918565b6102256102cd3660046125ba565b610943565b6102586102e0366004612403565b61095d565b6102626102f33660046128ac565b610978565b610225610306366004612656565b61098e565b6102256103193660046125ba565b610a91565b61021061032c3660046128ac565b610aab565b610225610ad3565b6102626103473660046123af565b610b34565b610210610b7d565b6102256103623660046125ba565b610b8c565b610225610ba6565b61025861037d3660046124ad565b610c07565b610258610390366004612443565b610cd5565b610225610d14565b6102586103ab3660046128ac565b610da2565b6102256103be3660046128ac565b610dae565b6102256103d1366004612656565b610ef4565b6102586103e4366004612738565b6111bf565b6101f26103f73660046123cb565b6111c8565b6104046111f6565b6040516101ff9b9a9998979695949392919061311c565b6001600160e01b0319811660009081526020819052604090205460ff165b919050565b600d546001600160a01b031681565b60068054604080516020601f60026000196101006001881615020190951694909404938401819004810282018101909252828152606093909290918301828280156104d95780601f106104ae576101008083540402835291602001916104d9565b820191906000526020600020905b8154815290600101906020018083116104bc57829003601f168201915b5050505050905090565b60006104ee82611317565b6105135760405162461bcd60e51b815260040161050a90612ea6565b60405180910390fd5b506000908152600460205260409020546001600160a01b031690565b600061053a82610aab565b9050806001600160a01b0316836001600160a01b0316141561056e5760405162461bcd60e51b815260040161050a90612f8a565b806001600160a01b0316610580611324565b6001600160a01b0316148061059c575061059c816103f7611324565b6105b85760405162461bcd60e51b815260040161050a90612dbd565b6105c28383611328565b505050565b60006105d36002611396565b905090565b606089896105e5826113a1565b6106015760405162461bcd60e51b815260040161050a90612be4565b61060a816113b5565b6106265760405162461bcd60e51b815260040161050a90612b51565b600a546001600160a01b031633146106505760405162461bcd60e51b815260040161050a90612c6e565b61065861216f565b600a54604051631fb6491d60e11b81526001600160a01b0390911690633f6c923a9061068a90899089906004016129d3565b60006040518083038186803b1580156106a257600080fd5b505afa1580156106b6573d6000803e3d6000fd5b505050506040513d6000823e601f3d908101601f191682016040526106de919081019061279e565b8051600e805460208085015160ff1990921660ff9485161761ff00191661010094909216939093021781556040830151600f5560608301516010805460808601516001600160a01b03199091166001600160a01b039093169290921763ffffffff60a01b1916600160a01b60e09390931c9290920291909117905560a083015180519394508493919261077792601192909101906121ca565b5060c0820151600482015560e0820151600582015561010082015160068201556101208201516007820180546001600160a01b03199081166001600160a01b03938416179091556101409093015160089092018054909316911617905560a081015180516107ed9160209181018201910161276b565b8051610801916017916020909101906121ca565b5061080c8686611450565b9d9c50505050505050505050505050565b61082e610828611324565b8261180f565b61084a5760405162461bcd60e51b815260040161050a9061301a565b6105c2838383611894565b600d54600090819081906001600160a01b03161561091357600b54600c54600d54604051631cd43d1160e31b81526001600160a01b039384169363e6a1e888936108ab9390821692309290911690600401612a82565b60806040518083038186803b1580156108c357600080fd5b505afa1580156108d7573d6000803e3d6000fd5b505050506040513d601f19601f820116820180604052508101906108fb91906128c4565b5050600d549194506001600160a01b03909116925090505b909192565b6001600160a01b038216600090815260016020526040812061093a90836119a2565b90505b92915050565b606060405162461bcd60e51b815260040161050a906130a2565b6105c283838360405180602001604052806000815250610cd5565b6000806109866002846119ae565b509392505050565b600a546060906001600160a01b031633146109bb5760405162461bcd60e51b815260040161050a90612c6e565b6109c48a6113a1565b15806109d657506109d4896113b5565b155b15610a1a5782828080601f016020809104026020016040519081016040528093929190818152602001838380828437600092019190915250929350610a8492505050565b604080516020810191829052600090819052610a38916017916121ca565b50610a776040518060400160405280601b81526020017f417661696c61626c6520666f72204164766572746973656d656e7400000000008152506119cc565b610a818383611450565b90505b9998505050505050505050565b606060405162461bcd60e51b815260040161050a90612c1b565b600061093d8260405180606001604052806029815260200161327760299139600291906119e3565b60098054604080516020601f60026000196101006001881615020190951694909404938401819004810282018101909252828152606093909290918301828280156104d95780601f106104ae576101008083540402835291602001916104d9565b60006001600160a01b038216610b5c5760405162461bcd60e51b815260040161050a90612e1a565b6001600160a01b038216600090815260016020526040902061093d90611396565b600a546001600160a01b031681565b606060405162461bcd60e51b815260040161050a90612fcb565b60078054604080516020601f60026000196101006001881615020190951694909404938401819004810282018101909252828152606093909290918301828280156104d95780601f106104ae576101008083540402835291602001916104d9565b610c0f611324565b6001600160a01b0316826001600160a01b03161415610c405760405162461bcd60e51b815260040161050a90612cf4565b8060056000610c4d611324565b6001600160a01b03908116825260208083019390935260409182016000908120918716808252919093529120805460ff191692151592909217909155610c91611324565b6001600160a01b03167f17307eab39ab6107e8899845ad3d59bd9653f200f220920489ca2b5937696c3183604051610cc991906129c8565b60405180910390a35050565b610ce6610ce0611324565b8361180f565b610d025760405162461bcd60e51b815260040161050a9061301a565b610d0e848484846119f0565b50505050565b6017805460408051602060026001851615610100026000190190941693909304601f81018490048402820184019092528181529291830182828015610d9a5780601f10610d6f57610100808354040283529160200191610d9a565b820191906000526020600020905b815481529060010190602001808311610d7d57829003601f168201915b505050505081565b610dab81611a23565b50565b6060610db982611317565b610dd55760405162461bcd60e51b815260040161050a90612f3b565b60008281526008602090815260409182902080548351601f6002600019610100600186161502019093169290920491820184900484028101840190945280845260609392830182828015610e6a5780601f10610e3f57610100808354040283529160200191610e6a565b820191906000526020600020905b815481529060010190602001808311610e4d57829003601f168201915b505050505090506060610e7b610ad3565b9050805160001415610e8f57509050610439565b815115610ec1578082604051602001610ea9929190612948565b60405160208183030381529060405292505050610439565b80610ecb85611af0565b604051602001610edc929190612948565b60405160208183030381529060405292505050919050565b60608989610f01826113a1565b610f1d5760405162461bcd60e51b815260040161050a90612be4565b610f26816113b5565b610f425760405162461bcd60e51b815260040161050a90612b51565b600a546001600160a01b03163314610f6c5760405162461bcd60e51b815260040161050a90612c6e565b610f7461216f565b600a54604051631fb6491d60e11b81526001600160a01b0390911690633f6c923a90610fa690899089906004016129d3565b60006040518083038186803b158015610fbe57600080fd5b505afa158015610fd2573d6000803e3d6000fd5b505050506040513d6000823e601f3d908101601f19168201604052610ffa919081019061279e565b8051600e805460208085015160ff1990921660ff9485161761ff00191661010094909216939093021781556040830151600f5560608301516010805460808601516001600160a01b03199091166001600160a01b039093169290921763ffffffff60a01b1916600160a01b60e09390931c9290920291909117905560a083015180519394508493919261109392601192909101906121ca565b5060c0820151600482015560e0820151600582015561010082015160068201556101208201516007820180546001600160a01b03199081166001600160a01b03938416179091556101409093015160089092018054909316911617905560a081015180516111099160209181018201910161276b565b805161111d916017916020909101906121ca565b5060178054604080516020601f600260001961010060018816150201909516949094049384018190048102820181019092528281526111b593909290918301828280156111ab5780601f10611180576101008083540402835291602001916111ab565b820191906000526020600020905b81548152906001019060200180831161118e57829003601f168201915b50505050506119cc565b61080c8686611450565b610dab816119cc565b6001600160a01b03918216600090815260056020908152604080832093909416825291909152205460ff1690565b600e8054600f54601054601180546040805160206002610100600186161581026000190190951604601f810182900482028301820190935282825260ff8089169994909804909716966001600160a01b03861695600160a01b900460e01b949192908301828280156112a95780601f1061127e576101008083540402835291602001916112a9565b820191906000526020600020905b81548152906001019060200180831161128c57829003601f168201915b50505060048401546005850154600686015460078701546008909701549596929591945092506001600160a01b0391821691168b565b600061093a8383611bcb565b600061130184846001600160a01b038516611c15565b90505b9392505050565b600061093a8383611cac565b600061093d60028361130b565b3390565b600081815260046020526040902080546001600160a01b0319166001600160a01b038416908117909155819061135d82610aab565b6001600160a01b03167f8c5be1e5ebec7d5bd14f71427d1e84f3dd0314c0f7b2291e5b200ac8c7c3b92560405160405180910390a45050565b600061093d82611cc4565b600c546001600160a01b0390811691161490565b60007fa9214cc96615e0085d3bb077758db69497dc2dce3b2b1e97bc93c3d18d83efd3826001600160a01b0316637730599e6040518163ffffffff1660e01b815260040160206040518083038186803b15801561141157600080fd5b505afa158015611425573d6000803e3d6000fd5b505050506040513d601f19601f820116820180604052508101906114499190612509565b1492915050565b606082828080601f0160208091040260200160405190810160405280939291908181526020018383808284376000920182905250600b54600c5460405163e8e7e2d160e01b815296975091956001600160a01b03918216955063e8e7e2d194506114c293509116903090600401612a68565b60206040518083038186803b1580156114da57600080fd5b505afa1580156114ee573d6000803e3d6000fd5b505050506040513d601f19601f82011682018060405250810190611512919061271d565b600b54600c54600d54604051631cd43d1160e31b81529394506000936001600160a01b039384169363e6a1e888936115569390821692309290911690600401612a82565b60806040518083038186803b15801561156e57600080fd5b505afa158015611582573d6000803e3d6000fd5b505050506040513d601f19601f820116820180604052508101906115a691906128c4565b5090925050508181016000600b82900b12156115c0576000035b600b81900b6116be57600a54600b54600c54600d546040805160008152602081019091526001600160a01b0394851694634329d29394811693635a5999e360e11b936116189391831692309291169060448101612aa5565b60408051601f198184030181529181526020820180516001600160e01b03166001600160e01b03199485161790525160e085901b909216825261166092918990600401612a15565b600060405180830381600087803b15801561167a57600080fd5b505af115801561168e573d6000803e3d6000fd5b505050506040513d6000823e601f3d908101601f191682016040526116b69190810190612559565b509350611806565b600b82900b1561171657600a54600b54600c54600d546040805160008152602081019091526001600160a01b0394851694634329d293948116936328104d3160e11b9361161893918316921690889060448101612ad9565b600a54600b54600c54600d546040805160008152602081019091526001600160a01b0394851694634329d2939481169363317e182f60e11b9361176493918316921690889060448101612ad9565b60408051601f198184030181529181526020820180516001600160e01b03166001600160e01b03199485161790525160e085901b90921682526117ac92918990600401612a15565b600060405180830381600087803b1580156117c657600080fd5b505af11580156117da573d6000803e3d6000fd5b505050506040513d6000823e601f3d908101601f191682016040526118029190810190612559565b5093505b50505092915050565b600061181a82611317565b6118365760405162461bcd60e51b815260040161050a90612d71565b600061184183610aab565b9050806001600160a01b0316846001600160a01b0316148061187c5750836001600160a01b0316611871846104e3565b6001600160a01b0316145b8061188c575061188c81856111c8565b949350505050565b826001600160a01b03166118a782610aab565b6001600160a01b0316146118cd5760405162461bcd60e51b815260040161050a90612ef2565b6001600160a01b0382166118f35760405162461bcd60e51b815260040161050a90612cb0565b6118fe8383836105c2565b611909600082611328565b6001600160a01b038316600090815260016020526040902061192b9082611cc8565b506001600160a01b038216600090815260016020526040902061194e90826112df565b5061195b600282846112eb565b5080826001600160a01b0316846001600160a01b03167fddf252ad1be2c89b69c2b068fc378daa952ba7f163c4a11628f55a4df523b3ef60405160405180910390a4505050565b600061093a8383611cd4565b60008080806119bd8686611d19565b909450925050505b9250929050565b80516119df9060099060208401906121ca565b5050565b6000611301848484611d75565b6119fb848484611894565b611a0784848484611dd4565b610d0e5760405162461bcd60e51b815260040161050a90612b92565b6000611a2e82610aab565b9050611a3c816000846105c2565b611a47600083611328565b6000828152600860205260409020546002600019610100600184161502019091160415611a85576000828152600860205260408120611a8591612248565b6001600160a01b0381166000908152600160205260409020611aa79083611cc8565b50611ab3600283611eb3565b5060405182906000906001600160a01b038416907fddf252ad1be2c89b69c2b068fc378daa952ba7f163c4a11628f55a4df523b3ef908390a45050565b606081611b1557506040805180820190915260018152600360fc1b6020820152610439565b8160005b8115611b2d57600101600a82049150611b19565b60608167ffffffffffffffff81118015611b4657600080fd5b506040519080825280601f01601f191660200182016040528015611b71576020820181803683370190505b50859350905060001982015b8315611bc257600a840660300160f81b82828060019003935081518110611ba057fe5b60200101906001600160f81b031916908160001a905350600a84049350611b7d565b50949350505050565b6000611bd78383611cac565b611c0d5750815460018181018455600084815260208082209093018490558454848252828601909352604090209190915561093d565b50600061093d565b600082815260018401602052604081205480611c7a575050604080518082018252838152602080820184815286546001818101895560008981528481209551600290930290950191825591519082015586548684528188019092529290912055611304565b82856000016001830381548110611c8d57fe5b9060005260206000209060020201600101819055506000915050611304565b60009081526001919091016020526040902054151590565b5490565b600061093a8383611ebf565b81546000908210611cf75760405162461bcd60e51b815260040161050a90612b0f565b826000018281548110611d0657fe5b9060005260206000200154905092915050565b815460009081908310611d3e5760405162461bcd60e51b815260040161050a90612e64565b6000846000018481548110611d4f57fe5b906000526020600020906002020190508060000154816001015492509250509250929050565b60008281526001840160205260408120548281611da55760405162461bcd60e51b815260040161050a9190612a02565b50846000016001820381548110611db857fe5b9060005260206000209060020201600101549150509392505050565b6000611de8846001600160a01b0316611f8c565b611df45750600161188c565b6060611e7c630a85bd0160e11b611e09611324565b888787604051602401611e1f949392919061298b565b604051602081830303815290604052906001600160e01b0319166020820180516001600160e01b038381831617835250505050604051806060016040528060328152602001613245603291396001600160a01b0388169190611f92565b9050600081806020019051810190611e94919061253d565b6001600160e01b031916630a85bd0160e11b1492505050949350505050565b600061093a8383611fa1565b60008181526001830160205260408120548015611f7b5783546000198083019190810190600090879083908110611ef257fe5b9060005260206000200154905080876000018481548110611f0f57fe5b600091825260208083209091019290925582815260018981019092526040902090840190558654879080611f3f57fe5b6001900381819060005260206000200160009055905586600101600087815260200190815260200160002060009055600194505050505061093d565b600091505061093d565b5092915050565b3b151590565b60606113018484600085612075565b60008181526001830160205260408120548015611f7b5783546000198083019190810190600090879083908110611fd457fe5b9060005260206000209060020201905080876000018481548110611ff457fe5b60009182526020808320845460029093020191825560019384015491840191909155835482528983019052604090209084019055865487908061203357fe5b600082815260208082206002600019909401938402018281556001908101839055929093558881528982019092526040822091909155945061093d9350505050565b6060824710156120975760405162461bcd60e51b815260040161050a90612d2b565b6120a085611f8c565b6120bc5760405162461bcd60e51b815260040161050a9061306b565b60006060866001600160a01b031685876040516120d9919061292c565b60006040518083038185875af1925050503d8060008114612116576040519150601f19603f3d011682016040523d82523d6000602084013e61211b565b606091505b509150915061212b828286612136565b979650505050505050565b60608315612145575081611304565b8251156121555782518084602001fd5b8160405162461bcd60e51b815260040161050a9190612a02565b604080516101608101825260008082526020820181905291810182905260608082018390526080820183905260a082015260c0810182905260e081018290526101008101829052610120810182905261014081019190915290565b828054600181600116156101000203166002900490600052602060002090601f016020900481019282601f1061220b57805160ff1916838001178555612238565b82800160010185558215612238579182015b8281111561223857825182559160200191906001019061221d565b50612244929150612288565b5090565b50805460018160011615610100020316600290046000825580601f1061226e5750610dab565b601f016020900490600052602060002090810190610dab91905b5b808211156122445760008155600101612289565b805161093d81613219565b805161093d8161322e565b60008083601f8401126122c4578182fd5b50813567ffffffffffffffff8111156122db578182fd5b6020830191508360208285010111156119c557600080fd5b600082601f830112612303578081fd5b8135612316612311826131c9565b6131a2565b915080825283602082850101111561232d57600080fd5b8060208401602084013760009082016020015292915050565b600082601f830112612356578081fd5b8151612364612311826131c9565b915080825283602082850101111561237b57600080fd5b611f858160208401602086016131ed565b8051600b81900b811461093d57600080fd5b805160ff8116811461093d57600080fd5b6000602082840312156123c0578081fd5b813561130481613219565b600080604083850312156123dd578081fd5b82356123e881613219565b915060208301356123f881613219565b809150509250929050565b600080600060608486031215612417578081fd5b833561242281613219565b9250602084013561243281613219565b929592945050506040919091013590565b60008060008060808587031215612458578081fd5b843561246381613219565b9350602085013561247381613219565b925060408501359150606085013567ffffffffffffffff811115612495578182fd5b6124a1878288016122f3565b91505092959194509250565b600080604083850312156124bf578182fd5b82356124ca81613219565b9150602083013580151581146123f8578182fd5b600080604083850312156124f0578182fd5b82356124fb81613219565b946020939093013593505050565b60006020828403121561251a578081fd5b5051919050565b600060208284031215612532578081fd5b81356113048161322e565b60006020828403121561254e578081fd5b81516113048161322e565b6000806040838503121561256b578182fd5b825167ffffffffffffffff80821115612582578384fd5b61258e86838701612346565b935060208501519150808211156125a3578283fd5b506125b085828601612346565b9150509250929050565b600080600080600080600060a0888a0312156125d4578485fd5b87356125df81613219565b965060208801356125ef81613219565b955060408801359450606088013567ffffffffffffffff80821115612612578485fd5b61261e8b838c016122b3565b909650945060808a0135915080821115612636578384fd5b506126438a828b016122b3565b989b979a50959850939692959293505050565b600080600080600080600080600060c08a8c031215612673578283fd5b893561267e81613219565b985060208a013561268e81613219565b975060408a0135965060608a013567ffffffffffffffff808211156126b1578485fd5b6126bd8d838e016122b3565b909850965060808c01359150808211156126d5578485fd5b6126e18d838e016122b3565b909650945060a08c01359150808211156126f9578384fd5b506127068c828d016122b3565b915080935050809150509295985092959850929598565b60006020828403121561272e578081fd5b61093a838361238c565b600060208284031215612749578081fd5b813567ffffffffffffffff81111561275f578182fd5b61188c848285016122f3565b60006020828403121561277c578081fd5b815167ffffffffffffffff811115612792578182fd5b61188c84828501612346565b6000602082840312156127af578081fd5b815167ffffffffffffffff808211156127c6578283fd5b81840191506101608083870312156127dc578384fd5b6127e5816131a2565b90506127f1868461239e565b8152612800866020850161239e565b60208201526040830151604082015261281c866060850161229d565b606082015261282e86608085016122a8565b608082015260a083015182811115612844578485fd5b61285087828601612346565b60a08301525060c083015160c082015260e083015160e08201526101009150818301518282015261012091506128888683850161229d565b82820152610140915061289d8683850161229d565b91810191909152949350505050565b6000602082840312156128bd578081fd5b5035919050565b600080600080608085870312156128d9578182fd5b845193506128ea866020870161238c565b6040860151606090960151949790965092505050565b600081518084526129188160208601602086016131ed565b601f01601f19169290920160200192915050565b6000825161293e8184602087016131ed565b9190910192915050565b6000835161295a8184602088016131ed565b83519083019061296e8183602088016131ed565b01949350505050565b6001600160a01b0391909116815260200190565b6001600160a01b03858116825284166020820152604081018390526080606082018190526000906129be90830184612900565b9695505050505050565b901515815260200190565b60006020825282602083015282846040840137818301604090810191909152601f909201601f19160101919050565b60006020825261093a6020830184612900565b6001600160a01b0384168152608060208201819052600090612a3990830185612900565b8281038060408501526002825261060f60f31b6020830152604081016060850152506129be6040820185612900565b6001600160a01b0392831681529116602082015260400190565b6001600160a01b0393841681529183166020830152909116604082015260600190565b6001600160a01b0385811682528481166020830152831660408201526080606082018190526000906129be90830184612900565b6001600160a01b03858116825284166020820152600b83900b60408201526080606082018190526000906129be90830184612900565b60208082526022908201527f456e756d657261626c655365743a20696e646578206f7574206f6620626f756e604082015261647360f01b606082015260800190565b60208082526021908201527f5265646972656374416c6c3a206f6e6c7920434641763120737570706f7274656040820152601960fa1b606082015260800190565b60208082526032908201527f4552433732313a207472616e7366657220746f206e6f6e20455243373231526560408201527131b2b4bb32b91034b6b83632b6b2b73a32b960711b606082015260800190565b6020808252601f908201527f5265646972656374416c6c3a206e6f7420616363657074656420746f6b656e00604082015260600190565b60208082526033908201527f556e737570706f727465642063616c6c6261636b202d20204265666f7265204160408201527219dc99595b595b9d0815195c9b5a5b985d1959606a1b606082015260800190565b60208082526022908201527f5265646972656374416c6c3a20737570706f7274206f6e6c79206f6e6520686f6040820152611cdd60f21b606082015260800190565b60208082526024908201527f4552433732313a207472616e7366657220746f20746865207a65726f206164646040820152637265737360e01b606082015260800190565b60208082526019908201527f4552433732313a20617070726f766520746f2063616c6c657200000000000000604082015260600190565b60208082526026908201527f416464726573733a20696e73756666696369656e742062616c616e636520666f6040820152651c8818d85b1b60d21b606082015260800190565b6020808252602c908201527f4552433732313a206f70657261746f7220717565727920666f72206e6f6e657860408201526b34b9ba32b73a103a37b5b2b760a11b606082015260800190565b60208082526038908201527f4552433732313a20617070726f76652063616c6c6572206973206e6f74206f7760408201527f6e6572206e6f7220617070726f76656420666f7220616c6c0000000000000000606082015260800190565b6020808252602a908201527f4552433732313a2062616c616e636520717565727920666f7220746865207a65604082015269726f206164647265737360b01b606082015260800190565b60208082526022908201527f456e756d657261626c654d61703a20696e646578206f7574206f6620626f756e604082015261647360f01b606082015260800190565b6020808252602c908201527f4552433732313a20617070726f76656420717565727920666f72206e6f6e657860408201526b34b9ba32b73a103a37b5b2b760a11b606082015260800190565b60208082526029908201527f4552433732313a207472616e73666572206f6620746f6b656e2074686174206960408201526839903737ba1037bbb760b91b606082015260800190565b6020808252602f908201527f4552433732314d657461646174613a2055524920717565727920666f72206e6f60408201526e3732bc34b9ba32b73a103a37b5b2b760891b606082015260800190565b60208082526021908201527f4552433732313a20617070726f76616c20746f2063757272656e74206f776e656040820152603960f91b606082015260800190565b6020808252602f908201527f556e737570706f727465642063616c6c6261636b202d204265666f726520416760408201526e1c99595b595b9d081d5c19185d1959608a1b606082015260800190565b60208082526031908201527f4552433732313a207472616e736665722063616c6c6572206973206e6f74206f6040820152701ddb995c881b9bdc88185c1c1c9bdd9959607a1b606082015260800190565b6020808252601d908201527f416464726573733a2063616c6c20746f206e6f6e2d636f6e7472616374000000604082015260600190565b6020808252602f908201527f556e737570706f727465642063616c6c6261636b202d204265666f726520416760408201526e1c99595b595b9d0810dc99585d1959608a1b606082015260800190565b90815260200190565b9283526001600160a01b03919091166020830152600b0b604082015260600190565b60ff8c811682528b166020820152604081018a90526001600160a01b0389811660608301526001600160e01b03198916608083015261016060a0830181905260009161316a8483018b612900565b60c085019990995260e08401979097525050610100810193909352908316610120830152909116610140909101529695505050505050565b60405181810167ffffffffffffffff811182821017156131c157600080fd5b604052919050565b600067ffffffffffffffff8211156131df578081fd5b50601f01601f191660200190565b60005b838110156132085781810151838201526020016131f0565b83811115610d0e5750506000910152565b6001600160a01b0381168114610dab57600080fd5b6001600160e01b031981168114610dab57600080fdfe4552433732313a207472616e7366657220746f206e6f6e20455243373231526563656976657220696d706c656d656e7465724552433732313a206f776e657220717565727920666f72206e6f6e6578697374656e7420746f6b656ea26469706673582212208a07b3803c2a36a6125f598f10d759d2cab088064ac37e464f2ef8d427ba007364736f6c63430007000033697066733a2f2f516d5542795541574b75613368615065765964554e69564862554771685632334b47586157515231686775666f792f312e6a736f6e",
  "linkReferences": {},
  "deployedLinkReferences": {}
}