{
  "_format": "hh-sol-artifact-1",
  "contractName": "TradeableCashflow",
  "sourceName": "contracts/TradeableCashflow.sol",
  "abi": [
    {
      "inputs": [
        {
          "internalType": "address",
          "name": "owner",
          "type": "address"
        },
        {
          "internalType": "string",
          "name": "_name",
          "type": "string"
        },
        {
          "internalType": "string",
          "name": "_symbol",
          "type": "string"
        },
        {
          "internalType": "contract ISuperfluid",
          "name": "host",
          "type": "address"
        },
        {
          "internalType": "contract IConstantFlowAgreementV1",
          "name": "cfa",
          "type": "address"
        },
        {
          "internalType": "contract ISuperToken",
          "name": "acceptedToken",
          "type": "address"
        },
        {
          "internalType": "address",
          "name": "receiver",
          "type": "address"
        }
      ],
      "stateMutability": "nonpayable",
      "type": "constructor"
    },
    {
      "anonymous": false,
      "inputs": [
        {
          "indexed": true,
          "internalType": "address",
          "name": "owner",
          "type": "address"
        },
        {
          "indexed": true,
          "internalType": "address",
          "name": "approved",
          "type": "address"
        },
        {
          "indexed": true,
          "internalType": "uint256",
          "name": "tokenId",
          "type": "uint256"
        }
      ],
      "name": "Approval",
      "type": "event"
    },
    {
      "anonymous": false,
      "inputs": [
        {
          "indexed": true,
          "internalType": "address",
          "name": "owner",
          "type": "address"
        },
        {
          "indexed": true,
          "internalType": "address",
          "name": "operator",
          "type": "address"
        },
        {
          "indexed": false,
          "internalType": "bool",
          "name": "approved",
          "type": "bool"
        }
      ],
      "name": "ApprovalForAll",
      "type": "event"
    },
    {
      "anonymous": false,
      "inputs": [
        {
          "indexed": false,
          "internalType": "address",
          "name": "receiver",
          "type": "address"
        }
      ],
      "name": "ReceiverChanged",
      "type": "event"
    },
    {
      "anonymous": false,
      "inputs": [
        {
          "indexed": true,
          "internalType": "address",
          "name": "from",
          "type": "address"
        },
        {
          "indexed": true,
          "internalType": "address",
          "name": "to",
          "type": "address"
        },
        {
          "indexed": true,
          "internalType": "uint256",
          "name": "tokenId",
          "type": "uint256"
        }
      ],
      "name": "Transfer",
      "type": "event"
    },
    {
      "inputs": [],
      "name": "_host",
      "outputs": [
        {
          "internalType": "contract ISuperfluid",
          "name": "",
          "type": "address"
        }
      ],
      "stateMutability": "view",
      "type": "function"
    },
    {
      "inputs": [],
      "name": "_receiver",
      "outputs": [
        {
          "internalType": "address",
          "name": "",
          "type": "address"
        }
      ],
      "stateMutability": "view",
      "type": "function"
    },
    {
      "inputs": [
        {
          "internalType": "contract ISuperToken",
          "name": "_superToken",
          "type": "address"
        },
        {
          "internalType": "address",
          "name": "_agreementClass",
          "type": "address"
        },
        {
          "internalType": "bytes32",
          "name": "",
          "type": "bytes32"
        },
        {
          "internalType": "bytes",
          "name": "",
          "type": "bytes"
        },
        {
          "internalType": "bytes",
          "name": "",
          "type": "bytes"
        },
        {
          "internalType": "bytes",
          "name": "_ctx",
          "type": "bytes"
        }
      ],
      "name": "afterAgreementCreated",
      "outputs": [
        {
          "internalType": "bytes",
          "name": "newCtx",
          "type": "bytes"
        }
      ],
      "stateMutability": "nonpayable",
      "type": "function"
    },
    {
      "inputs": [
        {
          "internalType": "contract ISuperToken",
          "name": "_superToken",
          "type": "address"
        },
        {
          "internalType": "address",
          "name": "_agreementClass",
          "type": "address"
        },
        {
          "internalType": "bytes32",
          "name": "",
          "type": "bytes32"
        },
        {
          "internalType": "bytes",
          "name": "",
          "type": "bytes"
        },
        {
          "internalType": "bytes",
          "name": "",
          "type": "bytes"
        },
        {
          "internalType": "bytes",
          "name": "_ctx",
          "type": "bytes"
        }
      ],
      "name": "afterAgreementTerminated",
      "outputs": [
        {
          "internalType": "bytes",
          "name": "newCtx",
          "type": "bytes"
        }
      ],
      "stateMutability": "nonpayable",
      "type": "function"
    },
    {
      "inputs": [
        {
          "internalType": "contract ISuperToken",
          "name": "_superToken",
          "type": "address"
        },
        {
          "internalType": "address",
          "name": "_agreementClass",
          "type": "address"
        },
        {
          "internalType": "bytes32",
          "name": "",
          "type": "bytes32"
        },
        {
          "internalType": "bytes",
          "name": "",
          "type": "bytes"
        },
        {
          "internalType": "bytes",
          "name": "",
          "type": "bytes"
        },
        {
          "internalType": "bytes",
          "name": "_ctx",
          "type": "bytes"
        }
      ],
      "name": "afterAgreementUpdated",
      "outputs": [
        {
          "internalType": "bytes",
          "name": "newCtx",
          "type": "bytes"
        }
      ],
      "stateMutability": "nonpayable",
      "type": "function"
    },
    {
      "inputs": [
        {
          "internalType": "address",
          "name": "to",
          "type": "address"
        },
        {
          "internalType": "uint256",
          "name": "tokenId",
          "type": "uint256"
        }
      ],
      "name": "approve",
      "outputs": [],
      "stateMutability": "nonpayable",
      "type": "function"
    },
    {
      "inputs": [
        {
          "internalType": "address",
          "name": "owner",
          "type": "address"
        }
      ],
      "name": "balanceOf",
      "outputs": [
        {
          "internalType": "uint256",
          "name": "",
          "type": "uint256"
        }
      ],
      "stateMutability": "view",
      "type": "function"
    },
    {
      "inputs": [],
      "name": "baseExtension",
      "outputs": [
        {
          "internalType": "string",
          "name": "",
          "type": "string"
        }
      ],
      "stateMutability": "view",
      "type": "function"
    },
    {
      "inputs": [],
      "name": "baseURI",
      "outputs": [
        {
          "internalType": "string",
          "name": "",
          "type": "string"
        }
      ],
      "stateMutability": "view",
      "type": "function"
    },
    {
      "inputs": [
        {
          "internalType": "contract ISuperToken",
          "name": "",
          "type": "address"
        },
        {
          "internalType": "address",
          "name": "",
          "type": "address"
        },
        {
          "internalType": "bytes32",
          "name": "",
          "type": "bytes32"
        },
        {
          "internalType": "bytes",
          "name": "",
          "type": "bytes"
        },
        {
          "internalType": "bytes",
          "name": "",
          "type": "bytes"
        }
      ],
      "name": "beforeAgreementCreated",
      "outputs": [
        {
          "internalType": "bytes",
          "name": "",
          "type": "bytes"
        }
      ],
      "stateMutability": "view",
      "type": "function"
    },
    {
      "inputs": [
        {
          "internalType": "contract ISuperToken",
          "name": "",
          "type": "address"
        },
        {
          "internalType": "address",
          "name": "",
          "type": "address"
        },
        {
          "internalType": "bytes32",
          "name": "",
          "type": "bytes32"
        },
        {
          "internalType": "bytes",
          "name": "",
          "type": "bytes"
        },
        {
          "internalType": "bytes",
          "name": "",
          "type": "bytes"
        }
      ],
      "name": "beforeAgreementTerminated",
      "outputs": [
        {
          "internalType": "bytes",
          "name": "",
          "type": "bytes"
        }
      ],
      "stateMutability": "view",
      "type": "function"
    },
    {
      "inputs": [
        {
          "internalType": "contract ISuperToken",
          "name": "",
          "type": "address"
        },
        {
          "internalType": "address",
          "name": "",
          "type": "address"
        },
        {
          "internalType": "bytes32",
          "name": "",
          "type": "bytes32"
        },
        {
          "internalType": "bytes",
          "name": "",
          "type": "bytes"
        },
        {
          "internalType": "bytes",
          "name": "",
          "type": "bytes"
        }
      ],
      "name": "beforeAgreementUpdated",
      "outputs": [
        {
          "internalType": "bytes",
          "name": "",
          "type": "bytes"
        }
      ],
      "stateMutability": "view",
      "type": "function"
    },
    {
      "inputs": [
        {
          "internalType": "string",
          "name": "_tokenURI",
          "type": "string"
        }
      ],
      "name": "changeURI",
      "outputs": [],
      "stateMutability": "nonpayable",
      "type": "function"
    },
    {
      "inputs": [],
      "name": "currentReceiver",
      "outputs": [
        {
          "internalType": "uint256",
          "name": "startTime",
          "type": "uint256"
        },
        {
          "internalType": "address",
          "name": "receiver",
          "type": "address"
        },
        {
          "internalType": "int96",
          "name": "flowRate",
          "type": "int96"
        }
      ],
      "stateMutability": "view",
      "type": "function"
    },
    {
      "inputs": [
        {
          "internalType": "uint256",
          "name": "_tokenId",
          "type": "uint256"
        }
      ],
      "name": "destroyNFT",
      "outputs": [],
      "stateMutability": "nonpayable",
      "type": "function"
    },
    {
      "inputs": [
        {
          "internalType": "uint256",
          "name": "tokenId",
          "type": "uint256"
        }
      ],
      "name": "getApproved",
      "outputs": [
        {
          "internalType": "address",
          "name": "",
          "type": "address"
        }
      ],
      "stateMutability": "view",
      "type": "function"
    },
    {
      "inputs": [
        {
          "internalType": "address",
          "name": "owner",
          "type": "address"
        },
        {
          "internalType": "address",
          "name": "operator",
          "type": "address"
        }
      ],
      "name": "isApprovedForAll",
      "outputs": [
        {
          "internalType": "bool",
          "name": "",
          "type": "bool"
        }
      ],
      "stateMutability": "view",
      "type": "function"
    },
    {
      "inputs": [],
      "name": "name",
      "outputs": [
        {
          "internalType": "string",
          "name": "",
          "type": "string"
        }
      ],
      "stateMutability": "view",
      "type": "function"
    },
    {
      "inputs": [
        {
          "internalType": "uint256",
          "name": "tokenId",
          "type": "uint256"
        }
      ],
      "name": "ownerOf",
      "outputs": [
        {
          "internalType": "address",
          "name": "",
          "type": "address"
        }
      ],
      "stateMutability": "view",
      "type": "function"
    },
    {
      "inputs": [
        {
          "internalType": "address",
          "name": "from",
          "type": "address"
        },
        {
          "internalType": "address",
          "name": "to",
          "type": "address"
        },
        {
          "internalType": "uint256",
          "name": "tokenId",
          "type": "uint256"
        }
      ],
      "name": "safeTransferFrom",
      "outputs": [],
      "stateMutability": "nonpayable",
      "type": "function"
    },
    {
      "inputs": [
        {
          "internalType": "address",
          "name": "from",
          "type": "address"
        },
        {
          "internalType": "address",
          "name": "to",
          "type": "address"
        },
        {
          "internalType": "uint256",
          "name": "tokenId",
          "type": "uint256"
        },
        {
          "internalType": "bytes",
          "name": "_data",
          "type": "bytes"
        }
      ],
      "name": "safeTransferFrom",
      "outputs": [],
      "stateMutability": "nonpayable",
      "type": "function"
    },
    {
      "inputs": [
        {
          "internalType": "address",
          "name": "operator",
          "type": "address"
        },
        {
          "internalType": "bool",
          "name": "approved",
          "type": "bool"
        }
      ],
      "name": "setApprovalForAll",
      "outputs": [],
      "stateMutability": "nonpayable",
      "type": "function"
    },
    {
      "inputs": [
        {
          "internalType": "bytes4",
          "name": "interfaceId",
          "type": "bytes4"
        }
      ],
      "name": "supportsInterface",
      "outputs": [
        {
          "internalType": "bool",
          "name": "",
          "type": "bool"
        }
      ],
      "stateMutability": "view",
      "type": "function"
    },
    {
      "inputs": [],
      "name": "symbol",
      "outputs": [
        {
          "internalType": "string",
          "name": "",
          "type": "string"
        }
      ],
      "stateMutability": "view",
      "type": "function"
    },
    {
      "inputs": [
        {
          "internalType": "uint256",
          "name": "index",
          "type": "uint256"
        }
      ],
      "name": "tokenByIndex",
      "outputs": [
        {
          "internalType": "uint256",
          "name": "",
          "type": "uint256"
        }
      ],
      "stateMutability": "view",
      "type": "function"
    },
    {
      "inputs": [
        {
          "internalType": "address",
          "name": "owner",
          "type": "address"
        },
        {
          "internalType": "uint256",
          "name": "index",
          "type": "uint256"
        }
      ],
      "name": "tokenOfOwnerByIndex",
      "outputs": [
        {
          "internalType": "uint256",
          "name": "",
          "type": "uint256"
        }
      ],
      "stateMutability": "view",
      "type": "function"
    },
    {
      "inputs": [
        {
          "internalType": "uint256",
          "name": "tokenId",
          "type": "uint256"
        }
      ],
      "name": "tokenURI",
      "outputs": [
        {
          "internalType": "string",
          "name": "",
          "type": "string"
        }
      ],
      "stateMutability": "view",
      "type": "function"
    },
    {
      "inputs": [],
      "name": "totalSupply",
      "outputs": [
        {
          "internalType": "uint256",
          "name": "",
          "type": "uint256"
        }
      ],
      "stateMutability": "view",
      "type": "function"
    },
    {
      "inputs": [
        {
          "internalType": "address",
          "name": "from",
          "type": "address"
        },
        {
          "internalType": "address",
          "name": "to",
          "type": "address"
        },
        {
          "internalType": "uint256",
          "name": "tokenId",
          "type": "uint256"
        }
      ],
      "name": "transferFrom",
      "outputs": [],
      "stateMutability": "nonpayable",
      "type": "function"
    },
    {
      "inputs": [],
      "name": "uData",
      "outputs": [
        {
          "internalType": "uint8",
          "name": "appLevel",
          "type": "uint8"
        },
        {
          "internalType": "uint8",
          "name": "callType",
          "type": "uint8"
        },
        {
          "internalType": "uint256",
          "name": "timestamp",
          "type": "uint256"
        },
        {
          "internalType": "address",
          "name": "msgSender",
          "type": "address"
        },
        {
          "internalType": "bytes4",
          "name": "agreementSelector",
          "type": "bytes4"
        },
        {
          "internalType": "bytes",
          "name": "userData",
          "type": "bytes"
        },
        {
          "internalType": "uint256",
          "name": "appAllowanceGranted",
          "type": "uint256"
        },
        {
          "internalType": "uint256",
          "name": "appAllowanceWanted",
          "type": "uint256"
        },
        {
          "internalType": "int256",
          "name": "appAllowanceUsed",
          "type": "int256"
        },
        {
          "internalType": "address",
          "name": "appAddress",
          "type": "address"
        },
        {
          "internalType": "contract ISuperfluidToken",
          "name": "appAllowanceToken",
          "type": "address"
        }
      ],
      "stateMutability": "view",
      "type": "function"
    },
    {
      "inputs": [],
      "name": "userData",
      "outputs": [
        {
          "internalType": "string",
          "name": "",
          "type": "string"
        }
      ],
      "stateMutability": "view",
      "type": "function"
    }
  ],
  "bytecode": "0x60c06040526005608081905264173539b7b760d91b60a09081526200002891600e9190620004d4565b503480156200003657600080fd5b5060405162003a1d38038062003a1d833981016040819052620000599162000617565b85856200006d6301ffc9a760e01b62000205565b815162000082906006906020850190620004d4565b50805162000098906007906020840190620004d4565b50620000ab6380ac58cd60e01b62000205565b620000bd635b5e139f60e01b62000205565b620000cf63780e9d6360e01b62000205565b50506001600160a01b038416620000e257fe5b6001600160a01b038316620000f357fe5b6001600160a01b0382166200010457fe5b6001600160a01b0381166200011557fe5b600a80546001600160a01b03199081166001600160a01b038781169190911792839055600b80548316878316179055600c80548316868316179055600d8054909216848216179091556040516315a722b960e31b8152641500000001929091169063ad3915c8906200018c9084906004016200078e565b600060405180830381600087803b158015620001a757600080fd5b505af1158015620001bc573d6000803e3d6000fd5b50505050620001d38860016200026060201b60201c565b620001f76040518060600160405280603c8152602001620039e1603c91396200034e565b5050505050505050620007b0565b6001600160e01b031980821614156200023b5760405162461bcd60e51b81526004016200023290620006eb565b60405180910390fd5b6001600160e01b0319166000908152602081905260409020805460ff19166001179055565b6001600160a01b038216620002895760405162461bcd60e51b8152600401620002329062000759565b620002948162000367565b15620002b45760405162461bcd60e51b8152600401620002329062000722565b620002c2600083836200038a565b6001600160a01b0382166000908152600160209081526040909120620002f3918390620012d36200038f821b17901c565b506200031181836002620003a460201b620012df179092919060201c565b5060405181906001600160a01b038416906000907fddf252ad1be2c89b69c2b068fc378daa952ba7f163c4a11628f55a4df523b3ef908290a45050565b805162000363906009906020840190620004d4565b5050565b600062000384826002620003c460201b620012fd1790919060201c565b92915050565b505050565b60006200039d8383620003d2565b9392505050565b6000620003bc84846001600160a01b03851662000421565b949350505050565b60006200039d8383620004bc565b6000620003e08383620004bc565b620004185750815460018181018455600084815260208082209093018490558454848252828601909352604090209190915562000384565b50600062000384565b600082815260018401602052604081205480620004885750506040805180820182528381526020808201848152865460018181018955600089815284812095516002909302909501918255915190820155865486845281880190925292909120556200039d565b828560000160018303815481106200049c57fe5b90600052602060002090600202016001018190555060009150506200039d565b60009081526001919091016020526040902054151590565b828054600181600116156101000203166002900490600052602060002090601f016020900481019282601f106200051757805160ff191683800117855562000547565b8280016001018555821562000547579182015b82811115620005475782518255916020019190600101906200052a565b506200055592915062000559565b5090565b5b808211156200055557600081556001016200055a565b600082601f83011262000581578081fd5b81516001600160401b038082111562000598578283fd5b6040516020601f8401601f1916820181018381118382101715620005ba578586fd5b80604052508194508382528681858801011115620005d757600080fd5b600092505b83831015620005fb5785830181015182840182015291820191620005dc565b838311156200060d5760008185840101525b5050505092915050565b600080600080600080600060e0888a03121562000632578283fd5b87516200063f8162000797565b60208901519097506001600160401b03808211156200065c578485fd5b6200066a8b838c0162000570565b975060408a015191508082111562000680578485fd5b506200068f8a828b0162000570565b9550506060880151620006a28162000797565b6080890151909450620006b58162000797565b60a0890151909350620006c88162000797565b60c0890151909250620006db8162000797565b8091505092959891949750929550565b6020808252601c908201527f4552433136353a20696e76616c696420696e7465726661636520696400000000604082015260600190565b6020808252601c908201527f4552433732313a20746f6b656e20616c7265616479206d696e74656400000000604082015260600190565b6020808252818101527f4552433732313a206d696e7420746f20746865207a65726f2061646472657373604082015260600190565b90815260200190565b6001600160a01b0381168114620007ad57600080fd5b50565b61322180620007c06000396000f3fe608060405234801561001057600080fd5b50600436106101e55760003560e01c80636352211e1161010f578063bea6998f116100a2578063d86ed3e511610071578063d86ed3e5146103d6578063e5e01c11146103e9578063e985e9c5146103fc578063ecf08fae1461040f576101e5565b8063bea6998f146103a0578063c40412b5146103a8578063c6682862146103bb578063c87b56dd146103c3576101e5565b8063884d1f40116100de578063884d1f401461035f57806395d89b4114610372578063a22cb4651461037a578063b88d4fde1461038d576101e5565b80636352211e146103295780636c0360eb1461033c57806370a0823114610344578063852e5a0a14610357576101e5565b806323b872dd1161018757806342842e0e1161015657806342842e0e146102dd5780634f6ccce7146102f057806353c11f99146103035780635f9e7d7714610316576101e5565b806323b872dd1461028d57806328d2bf94146102a05780632f745c59146102b757806330d9c915146102ca576101e5565b8063081812fc116101c3578063081812fc1461023d578063095ea7b31461025057806318160ddd14610265578063230dbd291461027a576101e5565b806301ffc9a7146101ea57806302964ff11461021357806306fdde0314610228575b600080fd5b6101fd6101f8366004612430565b61042e565b60405161020a91906128a8565b60405180910390f35b61021b61044d565b60405161020a9190612857565b61023061045c565b60405161020a91906128e2565b61021b61024b3660046127bb565b6104f2565b61026361025e3660046123ed565b61053e565b005b61026d6105d6565b60405161020a9190613001565b610230610288366004612565565b6105e7565b61026361029b366004612312565b61082c565b6102a8610864565b60405161020a9392919061300a565b61026d6102c53660046123ed565b610927565b6102306102d83660046124c9565b610952565b6102636102eb366004612312565b61096c565b61026d6102fe3660046127bb565b610987565b610230610311366004612565565b61099d565b6102306103243660046124c9565b610a83565b61021b6103373660046127bb565b610a9d565b610230610ac5565b61026d6103523660046122be565b610b26565b61021b610b6f565b61023061036d3660046124c9565b610b7e565b610230610b98565b6102636103883660046123bc565b610bf9565b61026361039b366004612352565b610cc7565b610230610d06565b6102636103b63660046127bb565b610d94565b610230610dda565b6102306103d13660046127bb565b610e35565b6102306103e4366004612565565b610eae565b6102636103f7366004612647565b611179565b6101fd61040a3660046122da565b6111bc565b6104176111ea565b60405161020a9b9a9998979695949392919061302c565b6001600160e01b03191660009081526020819052604090205460ff1690565b600d546001600160a01b031681565b60068054604080516020601f60026000196101006001881615020190951694909404938401819004810282018101909252828152606093909290918301828280156104e85780601f106104bd576101008083540402835291602001916104e8565b820191906000526020600020905b8154815290600101906020018083116104cb57829003601f168201915b5050505050905090565b60006104fd82611309565b6105225760405162461bcd60e51b815260040161051990612d86565b60405180910390fd5b506000908152600460205260409020546001600160a01b031690565b600061054982610a9d565b9050806001600160a01b0316836001600160a01b0316141561057d5760405162461bcd60e51b815260040161051990612e9a565b806001600160a01b031661058f611316565b6001600160a01b031614806105ab57506105ab8161040a611316565b6105c75760405162461bcd60e51b815260040161051990612c9d565b6105d1838361131a565b505050565b60006105e26002611388565b905090565b606089896105f482611393565b6106105760405162461bcd60e51b815260040161051990612ac4565b610619816113a7565b6106355760405162461bcd60e51b815260040161051990612a31565b600a546001600160a01b0316331461065f5760405162461bcd60e51b815260040161051990612b4e565b61066761207e565b600a54604051631fb6491d60e11b81526001600160a01b0390911690633f6c923a9061069990899089906004016128b3565b60006040518083038186803b1580156106b157600080fd5b505afa1580156106c5573d6000803e3d6000fd5b505050506040513d6000823e601f3d908101601f191682016040526106ed91908101906126ad565b8051600f805460208085015160ff1990921660ff9485161761ff0019166101009490921693909302178155604083015160105560608301516011805460808601516001600160a01b03199091166001600160a01b039093169290921763ffffffff60a01b1916600160a01b60e09390931c9290920291909117905560a083015180519394508493919261078692601292909101906120d9565b5060c0820151600482015560e0820151600582015561010082015160068201556101208201516007820180546001600160a01b03199081166001600160a01b03938416179091556101409093015160089092018054909316911617905560a081015180516107fc9160209181018201910161267a565b8051610810916018916020909101906120d9565b5061081b8686611442565b9d9c50505050505050505050505050565b61083d610837611316565b82611801565b6108595760405162461bcd60e51b815260040161051990612f2a565b6105d183838361187e565b600d54600090819081906001600160a01b03161561092257600b54600c54600d54604051631cd43d1160e31b81526001600160a01b039384169363e6a1e888936108ba9390821692309290911690600401612962565b60806040518083038186803b1580156108d257600080fd5b505afa1580156108e6573d6000803e3d6000fd5b505050506040513d601f19601f8201168201806040525081019061090a91906127d3565b5050600d549194506001600160a01b03909116925090505b909192565b6001600160a01b0382166000908152600160205260408120610949908361198c565b90505b92915050565b606060405162461bcd60e51b815260040161051990612fb2565b6105d183838360405180602001604052806000815250610cc7565b600080610995600284611998565b509392505050565b600a546060906001600160a01b031633146109ca5760405162461bcd60e51b815260040161051990612b4e565b6109d38a611393565b15806109e557506109e3896113a7565b155b15610a295782828080601f016020809104026020016040519081016040528093929190818152602001838380828437600092019190915250929350610a7692505050565b604080516020810191829052600090819052610a47916018916120d9565b50610a696040518060600160405280603c8152602001613187603c91396119b6565b610a738383611442565b90505b9998505050505050505050565b606060405162461bcd60e51b815260040161051990612afb565b600061094c826040518060600160405280602981526020016131c360299139600291906119cd565b60098054604080516020601f60026000196101006001881615020190951694909404938401819004810282018101909252828152606093909290918301828280156104e85780601f106104bd576101008083540402835291602001916104e8565b60006001600160a01b038216610b4e5760405162461bcd60e51b815260040161051990612cfa565b6001600160a01b038216600090815260016020526040902061094c90611388565b600a546001600160a01b031681565b606060405162461bcd60e51b815260040161051990612edb565b60078054604080516020601f60026000196101006001881615020190951694909404938401819004810282018101909252828152606093909290918301828280156104e85780601f106104bd576101008083540402835291602001916104e8565b610c01611316565b6001600160a01b0316826001600160a01b03161415610c325760405162461bcd60e51b815260040161051990612bd4565b8060056000610c3f611316565b6001600160a01b03908116825260208083019390935260409182016000908120918716808252919093529120805460ff191692151592909217909155610c83611316565b6001600160a01b03167f17307eab39ab6107e8899845ad3d59bd9653f200f220920489ca2b5937696c3183604051610cbb91906128a8565b60405180910390a35050565b610cd8610cd2611316565b83611801565b610cf45760405162461bcd60e51b815260040161051990612f2a565b610d00848484846119da565b50505050565b6018805460408051602060026001851615610100026000190190941693909304601f81018490048402820184019092528181529291830182828015610d8c5780601f10610d6157610100808354040283529160200191610d8c565b820191906000526020600020905b815481529060010190602001808311610d6f57829003601f168201915b505050505081565b610d9e6001610a9d565b6001600160a01b0316336001600160a01b031614610dce5760405162461bcd60e51b815260040161051990612dd2565b610dd781611a0d565b50565b600e805460408051602060026001851615610100026000190190941693909304601f81018490048402820184019092528181529291830182828015610d8c5780601f10610d6157610100808354040283529160200191610d8c565b6060610e4082611309565b610e5c5760405162461bcd60e51b815260040161051990612e4b565b6060610e66610ac5565b90506000815111610e865760405180602001604052806000815250610ea7565b80604051602001610e97919061283b565b6040516020818303038152906040525b9392505050565b60608989610ebb82611393565b610ed75760405162461bcd60e51b815260040161051990612ac4565b610ee0816113a7565b610efc5760405162461bcd60e51b815260040161051990612a31565b600a546001600160a01b03163314610f265760405162461bcd60e51b815260040161051990612b4e565b610f2e61207e565b600a54604051631fb6491d60e11b81526001600160a01b0390911690633f6c923a90610f6090899089906004016128b3565b60006040518083038186803b158015610f7857600080fd5b505afa158015610f8c573d6000803e3d6000fd5b505050506040513d6000823e601f3d908101601f19168201604052610fb491908101906126ad565b8051600f805460208085015160ff1990921660ff9485161761ff0019166101009490921693909302178155604083015160105560608301516011805460808601516001600160a01b03199091166001600160a01b039093169290921763ffffffff60a01b1916600160a01b60e09390931c9290920291909117905560a083015180519394508493919261104d92601292909101906120d9565b5060c0820151600482015560e0820151600582015561010082015160068201556101208201516007820180546001600160a01b03199081166001600160a01b03938416179091556101409093015160089092018054909316911617905560a081015180516110c39160209181018201910161267a565b80516110d7916018916020909101906120d9565b5060188054604080516020601f6002600019610100600188161502019095169490940493840181900481028201810190925282815261116f93909290918301828280156111655780601f1061113a57610100808354040283529160200191611165565b820191906000526020600020905b81548152906001019060200180831161114857829003601f168201915b50505050506119b6565b61081b8686611442565b6111836001610a9d565b6001600160a01b0316336001600160a01b0316146111b35760405162461bcd60e51b815260040161051990612dd2565b610dd7816119b6565b6001600160a01b03918216600090815260056020908152604080832093909416825291909152205460ff1690565b600f8054601054601154601280546040805160206002610100600186161581026000190190951604601f810182900482028301820190935282825260ff8089169994909804909716966001600160a01b03861695600160a01b900460e01b9491929083018282801561129d5780601f106112725761010080835404028352916020019161129d565b820191906000526020600020905b81548152906001019060200180831161128057829003601f168201915b50505060048401546005850154600686015460078701546008909701549596929591945092506001600160a01b0391821691168b565b60006109498383611ada565b60006112f584846001600160a01b038516611b24565b949350505050565b60006109498383611bbb565b600061094c6002836112fd565b3390565b600081815260046020526040902080546001600160a01b0319166001600160a01b038416908117909155819061134f82610a9d565b6001600160a01b03167f8c5be1e5ebec7d5bd14f71427d1e84f3dd0314c0f7b2291e5b200ac8c7c3b92560405160405180910390a45050565b600061094c82611bd3565b600c546001600160a01b0390811691161490565b60007fa9214cc96615e0085d3bb077758db69497dc2dce3b2b1e97bc93c3d18d83efd3826001600160a01b0316637730599e6040518163ffffffff1660e01b815260040160206040518083038186803b15801561140357600080fd5b505afa158015611417573d6000803e3d6000fd5b505050506040513d601f19601f8201168201806040525081019061143b9190612418565b1492915050565b606082828080601f0160208091040260200160405190810160405280939291908181526020018383808284376000920182905250600b54600c5460405163e8e7e2d160e01b815296975091956001600160a01b03918216955063e8e7e2d194506114b493509116903090600401612948565b60206040518083038186803b1580156114cc57600080fd5b505afa1580156114e0573d6000803e3d6000fd5b505050506040513d601f19601f82011682018060405250810190611504919061262c565b600b54600c54600d54604051631cd43d1160e31b81529394506000936001600160a01b039384169363e6a1e888936115489390821692309290911690600401612962565b60806040518083038186803b15801561156057600080fd5b505afa158015611574573d6000803e3d6000fd5b505050506040513d601f19601f8201168201806040525081019061159891906127d3565b5090925050508181016000600b82900b12156115b2576000035b600b81900b6116b057600a54600b54600c54600d546040805160008152602081019091526001600160a01b0394851694634329d29394811693635a5999e360e11b9361160a9391831692309291169060448101612985565b60408051601f198184030181529181526020820180516001600160e01b03166001600160e01b03199485161790525160e085901b9092168252611652929189906004016128f5565b600060405180830381600087803b15801561166c57600080fd5b505af1158015611680573d6000803e3d6000fd5b505050506040513d6000823e601f3d908101601f191682016040526116a89190810190612468565b5093506117f8565b600b82900b1561170857600a54600b54600c54600d546040805160008152602081019091526001600160a01b0394851694634329d293948116936328104d3160e11b9361160a939183169216908890604481016129b9565b600a54600b54600c54600d546040805160008152602081019091526001600160a01b0394851694634329d2939481169363317e182f60e11b93611756939183169216908890604481016129b9565b60408051601f198184030181529181526020820180516001600160e01b03166001600160e01b03199485161790525160e085901b909216825261179e929189906004016128f5565b600060405180830381600087803b1580156117b857600080fd5b505af11580156117cc573d6000803e3d6000fd5b505050506040513d6000823e601f3d908101601f191682016040526117f49190810190612468565b5093505b50505092915050565b600061180c82611309565b6118285760405162461bcd60e51b815260040161051990612c51565b600061183383610a9d565b9050806001600160a01b0316846001600160a01b0316148061186e5750836001600160a01b0316611863846104f2565b6001600160a01b0316145b806112f557506112f581856111bc565b826001600160a01b031661189182610a9d565b6001600160a01b0316146118b75760405162461bcd60e51b815260040161051990612e02565b6001600160a01b0382166118dd5760405162461bcd60e51b815260040161051990612b90565b6118e88383836105d1565b6118f360008261131a565b6001600160a01b03831660009081526001602052604090206119159082611bd7565b506001600160a01b038216600090815260016020526040902061193890826112d3565b50611945600282846112df565b5080826001600160a01b0316846001600160a01b03167fddf252ad1be2c89b69c2b068fc378daa952ba7f163c4a11628f55a4df523b3ef60405160405180910390a4505050565b60006109498383611be3565b60008080806119a78686611c28565b909450925050505b9250929050565b80516119c99060099060208401906120d9565b5050565b60006112f5848484611c84565b6119e584848461187e565b6119f184848484611ce3565b610d005760405162461bcd60e51b815260040161051990612a72565b6000611a1882610a9d565b9050611a26816000846105d1565b611a3160008361131a565b6000828152600860205260409020546002600019610100600184161502019091160415611a6f576000828152600860205260408120611a6f91612157565b6001600160a01b0381166000908152600160205260409020611a919083611bd7565b50611a9d600283611dc2565b5060405182906000906001600160a01b038416907fddf252ad1be2c89b69c2b068fc378daa952ba7f163c4a11628f55a4df523b3ef908390a45050565b6000611ae68383611bbb565b611b1c5750815460018181018455600084815260208082209093018490558454848252828601909352604090209190915561094c565b50600061094c565b600082815260018401602052604081205480611b89575050604080518082018252838152602080820184815286546001818101895560008981528481209551600290930290950191825591519082015586548684528188019092529290912055610ea7565b82856000016001830381548110611b9c57fe5b9060005260206000209060020201600101819055506000915050610ea7565b60009081526001919091016020526040902054151590565b5490565b60006109498383611dce565b81546000908210611c065760405162461bcd60e51b8152600401610519906129ef565b826000018281548110611c1557fe5b9060005260206000200154905092915050565b815460009081908310611c4d5760405162461bcd60e51b815260040161051990612d44565b6000846000018481548110611c5e57fe5b906000526020600020906002020190508060000154816001015492509250509250929050565b60008281526001840160205260408120548281611cb45760405162461bcd60e51b815260040161051991906128e2565b50846000016001820381548110611cc757fe5b9060005260206000209060020201600101549150509392505050565b6000611cf7846001600160a01b0316611e9b565b611d03575060016112f5565b6060611d8b630a85bd0160e11b611d18611316565b888787604051602401611d2e949392919061286b565b604051602081830303815290604052906001600160e01b0319166020820180516001600160e01b038381831617835250505050604051806060016040528060328152602001613155603291396001600160a01b0388169190611ea1565b9050600081806020019051810190611da3919061244c565b6001600160e01b031916630a85bd0160e11b1492505050949350505050565b60006109498383611eb0565b60008181526001830160205260408120548015611e8a5783546000198083019190810190600090879083908110611e0157fe5b9060005260206000200154905080876000018481548110611e1e57fe5b600091825260208083209091019290925582815260018981019092526040902090840190558654879080611e4e57fe5b6001900381819060005260206000200160009055905586600101600087815260200190815260200160002060009055600194505050505061094c565b600091505061094c565b5092915050565b3b151590565b60606112f58484600085611f84565b60008181526001830160205260408120548015611e8a5783546000198083019190810190600090879083908110611ee357fe5b9060005260206000209060020201905080876000018481548110611f0357fe5b600091825260208083208454600290930201918255600193840154918401919091558354825289830190526040902090840190558654879080611f4257fe5b600082815260208082206002600019909401938402018281556001908101839055929093558881528982019092526040822091909155945061094c9350505050565b606082471015611fa65760405162461bcd60e51b815260040161051990612c0b565b611faf85611e9b565b611fcb5760405162461bcd60e51b815260040161051990612f7b565b60006060866001600160a01b03168587604051611fe8919061283b565b60006040518083038185875af1925050503d8060008114612025576040519150601f19603f3d011682016040523d82523d6000602084013e61202a565b606091505b509150915061203a828286612045565b979650505050505050565b60608315612054575081610ea7565b8251156120645782518084602001fd5b8160405162461bcd60e51b815260040161051991906128e2565b604080516101608101825260008082526020820181905291810182905260608082018390526080820183905260a082015260c0810182905260e081018290526101008101829052610120810182905261014081019190915290565b828054600181600116156101000203166002900490600052602060002090601f016020900481019282601f1061211a57805160ff1916838001178555612147565b82800160010185558215612147579182015b8281111561214757825182559160200191906001019061212c565b50612153929150612197565b5090565b50805460018160011615610100020316600290046000825580601f1061217d5750610dd7565b601f016020900490600052602060002090810190610dd791905b5b808211156121535760008155600101612198565b805161094c81613129565b805161094c8161313e565b60008083601f8401126121d3578182fd5b50813567ffffffffffffffff8111156121ea578182fd5b6020830191508360208285010111156119af57600080fd5b600082601f830112612212578081fd5b8135612225612220826130d9565b6130b2565b915080825283602082850101111561223c57600080fd5b8060208401602084013760009082016020015292915050565b600082601f830112612265578081fd5b8151612273612220826130d9565b915080825283602082850101111561228a57600080fd5b611e948160208401602086016130fd565b8051600b81900b811461094c57600080fd5b805160ff8116811461094c57600080fd5b6000602082840312156122cf578081fd5b8135610ea781613129565b600080604083850312156122ec578081fd5b82356122f781613129565b9150602083013561230781613129565b809150509250929050565b600080600060608486031215612326578081fd5b833561233181613129565b9250602084013561234181613129565b929592945050506040919091013590565b60008060008060808587031215612367578081fd5b843561237281613129565b9350602085013561238281613129565b925060408501359150606085013567ffffffffffffffff8111156123a4578182fd5b6123b087828801612202565b91505092959194509250565b600080604083850312156123ce578182fd5b82356123d981613129565b915060208301358015158114612307578182fd5b600080604083850312156123ff578182fd5b823561240a81613129565b946020939093013593505050565b600060208284031215612429578081fd5b5051919050565b600060208284031215612441578081fd5b8135610ea78161313e565b60006020828403121561245d578081fd5b8151610ea78161313e565b6000806040838503121561247a578182fd5b825167ffffffffffffffff80821115612491578384fd5b61249d86838701612255565b935060208501519150808211156124b2578283fd5b506124bf85828601612255565b9150509250929050565b600080600080600080600060a0888a0312156124e3578485fd5b87356124ee81613129565b965060208801356124fe81613129565b955060408801359450606088013567ffffffffffffffff80821115612521578485fd5b61252d8b838c016121c2565b909650945060808a0135915080821115612545578384fd5b506125528a828b016121c2565b989b979a50959850939692959293505050565b600080600080600080600080600060c08a8c031215612582578283fd5b893561258d81613129565b985060208a013561259d81613129565b975060408a0135965060608a013567ffffffffffffffff808211156125c0578485fd5b6125cc8d838e016121c2565b909850965060808c01359150808211156125e4578485fd5b6125f08d838e016121c2565b909650945060a08c0135915080821115612608578384fd5b506126158c828d016121c2565b915080935050809150509295985092959850929598565b60006020828403121561263d578081fd5b610949838361229b565b600060208284031215612658578081fd5b813567ffffffffffffffff81111561266e578182fd5b6112f584828501612202565b60006020828403121561268b578081fd5b815167ffffffffffffffff8111156126a1578182fd5b6112f584828501612255565b6000602082840312156126be578081fd5b815167ffffffffffffffff808211156126d5578283fd5b81840191506101608083870312156126eb578384fd5b6126f4816130b2565b905061270086846122ad565b815261270f86602085016122ad565b60208201526040830151604082015261272b86606085016121ac565b606082015261273d86608085016121b7565b608082015260a083015182811115612753578485fd5b61275f87828601612255565b60a08301525060c083015160c082015260e083015160e0820152610100915081830151828201526101209150612797868385016121ac565b8282015261014091506127ac868385016121ac565b91810191909152949350505050565b6000602082840312156127cc578081fd5b5035919050565b600080600080608085870312156127e8578182fd5b845193506127f9866020870161229b565b6040860151606090960151949790965092505050565b600081518084526128278160208601602086016130fd565b601f01601f19169290920160200192915050565b6000825161284d8184602087016130fd565b9190910192915050565b6001600160a01b0391909116815260200190565b6001600160a01b038581168252841660208201526040810183905260806060820181905260009061289e9083018461280f565b9695505050505050565b901515815260200190565b60006020825282602083015282846040840137818301604090810191909152601f909201601f19160101919050565b600060208252610949602083018461280f565b6001600160a01b03841681526080602082018190526000906129199083018561280f565b8281038060408501526002825261060f60f31b60208301526040810160608501525061289e604082018561280f565b6001600160a01b0392831681529116602082015260400190565b6001600160a01b0393841681529183166020830152909116604082015260600190565b6001600160a01b03858116825284811660208301528316604082015260806060820181905260009061289e9083018461280f565b6001600160a01b03858116825284166020820152600b83900b604082015260806060820181905260009061289e9083018461280f565b60208082526022908201527f456e756d657261626c655365743a20696e646578206f7574206f6620626f756e604082015261647360f01b606082015260800190565b60208082526021908201527f5265646972656374416c6c3a206f6e6c7920434641763120737570706f7274656040820152601960fa1b606082015260800190565b60208082526032908201527f4552433732313a207472616e7366657220746f206e6f6e20455243373231526560408201527131b2b4bb32b91034b6b83632b6b2b73a32b960711b606082015260800190565b6020808252601f908201527f5265646972656374416c6c3a206e6f7420616363657074656420746f6b656e00604082015260600190565b60208082526033908201527f556e737570706f727465642063616c6c6261636b202d20204265666f7265204160408201527219dc99595b595b9d0815195c9b5a5b985d1959606a1b606082015260800190565b60208082526022908201527f5265646972656374416c6c3a20737570706f7274206f6e6c79206f6e6520686f6040820152611cdd60f21b606082015260800190565b60208082526024908201527f4552433732313a207472616e7366657220746f20746865207a65726f206164646040820152637265737360e01b606082015260800190565b60208082526019908201527f4552433732313a20617070726f766520746f2063616c6c657200000000000000604082015260600190565b60208082526026908201527f416464726573733a20696e73756666696369656e742062616c616e636520666f6040820152651c8818d85b1b60d21b606082015260800190565b6020808252602c908201527f4552433732313a206f70657261746f7220717565727920666f72206e6f6e657860408201526b34b9ba32b73a103a37b5b2b760a11b606082015260800190565b60208082526038908201527f4552433732313a20617070726f76652063616c6c6572206973206e6f74206f7760408201527f6e6572206e6f7220617070726f76656420666f7220616c6c0000000000000000606082015260800190565b6020808252602a908201527f4552433732313a2062616c616e636520717565727920666f7220746865207a65604082015269726f206164647265737360b01b606082015260800190565b60208082526022908201527f456e756d657261626c654d61703a20696e646578206f7574206f6620626f756e604082015261647360f01b606082015260800190565b6020808252602c908201527f4552433732313a20617070726f76656420717565727920666f72206e6f6e657860408201526b34b9ba32b73a103a37b5b2b760a11b606082015260800190565b6020808252601690820152752737ba103a34329037bbb732b91037b3102a37b5b2b760511b604082015260600190565b60208082526029908201527f4552433732313a207472616e73666572206f6620746f6b656e2074686174206960408201526839903737ba1037bbb760b91b606082015260800190565b6020808252602f908201527f4552433732314d657461646174613a2055524920717565727920666f72206e6f60408201526e3732bc34b9ba32b73a103a37b5b2b760891b606082015260800190565b60208082526021908201527f4552433732313a20617070726f76616c20746f2063757272656e74206f776e656040820152603960f91b606082015260800190565b6020808252602f908201527f556e737570706f727465642063616c6c6261636b202d204265666f726520416760408201526e1c99595b595b9d081d5c19185d1959608a1b606082015260800190565b60208082526031908201527f4552433732313a207472616e736665722063616c6c6572206973206e6f74206f6040820152701ddb995c881b9bdc88185c1c1c9bdd9959607a1b606082015260800190565b6020808252601d908201527f416464726573733a2063616c6c20746f206e6f6e2d636f6e7472616374000000604082015260600190565b6020808252602f908201527f556e737570706f727465642063616c6c6261636b202d204265666f726520416760408201526e1c99595b595b9d0810dc99585d1959608a1b606082015260800190565b90815260200190565b9283526001600160a01b03919091166020830152600b0b604082015260600190565b60ff8c811682528b166020820152604081018a90526001600160a01b0389811660608301526001600160e01b03198916608083015261016060a0830181905260009161307a8483018b61280f565b60c085019990995260e08401979097525050610100810193909352908316610120830152909116610140909101529695505050505050565b60405181810167ffffffffffffffff811182821017156130d157600080fd5b604052919050565b600067ffffffffffffffff8211156130ef578081fd5b50601f01601f191660200190565b60005b83811015613118578181015183820152602001613100565b83811115610d005750506000910152565b6001600160a01b0381168114610dd757600080fd5b6001600160e01b031981168114610dd757600080fdfe4552433732313a207472616e7366657220746f206e6f6e20455243373231526563656976657220696d706c656d656e746572697066733a2f2f516d627036676d6f6b6f34535042355a336f646962596938617233554331746b6e3737534d7073313677467942582f312e6a736f6e4552433732313a206f776e657220717565727920666f72206e6f6e6578697374656e7420746f6b656ea2646970667358221220bf90fdccf7549bed175793dfe260ebf4e75bda33405a685743b62ad04a34ecb164736f6c63430007000033697066733a2f2f516d627036676d6f6b6f34535042355a336f646962596938617233554331746b6e3737534d7073313677467942582f312e6a736f6e",
  "linkReferences": {},
  "deployedLinkReferences": {}
}