{
  "address": "0x8d0ff8e67f09554861c2e0f8052479216a28f97b",
  "abi": [
    {
      "inputs": [
        {
          "internalType": "address",
          "name": "owner",
          "type": "address"
        },
        {
          "internalType": "string",
          "name": "_name",
          "type": "string"
        },
        {
          "internalType": "string",
          "name": "_symbol",
          "type": "string"
        },
        {
          "internalType": "contract ISuperfluid",
          "name": "host",
          "type": "address"
        },
        {
          "internalType": "contract IConstantFlowAgreementV1",
          "name": "cfa",
          "type": "address"
        },
        {
          "internalType": "contract ISuperToken",
          "name": "acceptedToken",
          "type": "address"
        }
      ],
      "stateMutability": "nonpayable",
      "type": "constructor"
    },
    {
      "anonymous": false,
      "inputs": [
        {
          "indexed": true,
          "internalType": "address",
          "name": "owner",
          "type": "address"
        },
        {
          "indexed": true,
          "internalType": "address",
          "name": "approved",
          "type": "address"
        },
        {
          "indexed": true,
          "internalType": "uint256",
          "name": "tokenId",
          "type": "uint256"
        }
      ],
      "name": "Approval",
      "type": "event"
    },
    {
      "anonymous": false,
      "inputs": [
        {
          "indexed": true,
          "internalType": "address",
          "name": "owner",
          "type": "address"
        },
        {
          "indexed": true,
          "internalType": "address",
          "name": "operator",
          "type": "address"
        },
        {
          "indexed": false,
          "internalType": "bool",
          "name": "approved",
          "type": "bool"
        }
      ],
      "name": "ApprovalForAll",
      "type": "event"
    },
    {
      "anonymous": false,
      "inputs": [
        {
          "indexed": false,
          "internalType": "address",
          "name": "receiver",
          "type": "address"
        }
      ],
      "name": "ReceiverChanged",
      "type": "event"
    },
    {
      "anonymous": false,
      "inputs": [
        {
          "indexed": true,
          "internalType": "address",
          "name": "from",
          "type": "address"
        },
        {
          "indexed": true,
          "internalType": "address",
          "name": "to",
          "type": "address"
        },
        {
          "indexed": true,
          "internalType": "uint256",
          "name": "tokenId",
          "type": "uint256"
        }
      ],
      "name": "Transfer",
      "type": "event"
    },
    {
      "inputs": [],
      "name": "_host",
      "outputs": [
        {
          "internalType": "contract ISuperfluid",
          "name": "",
          "type": "address"
        }
      ],
      "stateMutability": "view",
      "type": "function"
    },
    {
      "inputs": [],
      "name": "_receiver",
      "outputs": [
        {
          "internalType": "address",
          "name": "",
          "type": "address"
        }
      ],
      "stateMutability": "view",
      "type": "function"
    },
    {
      "inputs": [
        {
          "internalType": "contract ISuperToken",
          "name": "_superToken",
          "type": "address"
        },
        {
          "internalType": "address",
          "name": "_agreementClass",
          "type": "address"
        },
        {
          "internalType": "bytes32",
          "name": "",
          "type": "bytes32"
        },
        {
          "internalType": "bytes",
          "name": "",
          "type": "bytes"
        },
        {
          "internalType": "bytes",
          "name": "",
          "type": "bytes"
        },
        {
          "internalType": "bytes",
          "name": "_ctx",
          "type": "bytes"
        }
      ],
      "name": "afterAgreementCreated",
      "outputs": [
        {
          "internalType": "bytes",
          "name": "newCtx",
          "type": "bytes"
        }
      ],
      "stateMutability": "nonpayable",
      "type": "function"
    },
    {
      "inputs": [
        {
          "internalType": "contract ISuperToken",
          "name": "_superToken",
          "type": "address"
        },
        {
          "internalType": "address",
          "name": "_agreementClass",
          "type": "address"
        },
        {
          "internalType": "bytes32",
          "name": "",
          "type": "bytes32"
        },
        {
          "internalType": "bytes",
          "name": "",
          "type": "bytes"
        },
        {
          "internalType": "bytes",
          "name": "",
          "type": "bytes"
        },
        {
          "internalType": "bytes",
          "name": "_ctx",
          "type": "bytes"
        }
      ],
      "name": "afterAgreementTerminated",
      "outputs": [
        {
          "internalType": "bytes",
          "name": "newCtx",
          "type": "bytes"
        }
      ],
      "stateMutability": "nonpayable",
      "type": "function"
    },
    {
      "inputs": [
        {
          "internalType": "contract ISuperToken",
          "name": "_superToken",
          "type": "address"
        },
        {
          "internalType": "address",
          "name": "_agreementClass",
          "type": "address"
        },
        {
          "internalType": "bytes32",
          "name": "",
          "type": "bytes32"
        },
        {
          "internalType": "bytes",
          "name": "",
          "type": "bytes"
        },
        {
          "internalType": "bytes",
          "name": "",
          "type": "bytes"
        },
        {
          "internalType": "bytes",
          "name": "_ctx",
          "type": "bytes"
        }
      ],
      "name": "afterAgreementUpdated",
      "outputs": [
        {
          "internalType": "bytes",
          "name": "newCtx",
          "type": "bytes"
        }
      ],
      "stateMutability": "nonpayable",
      "type": "function"
    },
    {
      "inputs": [
        {
          "internalType": "address",
          "name": "to",
          "type": "address"
        },
        {
          "internalType": "uint256",
          "name": "tokenId",
          "type": "uint256"
        }
      ],
      "name": "approve",
      "outputs": [],
      "stateMutability": "nonpayable",
      "type": "function"
    },
    {
      "inputs": [
        {
          "internalType": "address",
          "name": "owner",
          "type": "address"
        }
      ],
      "name": "balanceOf",
      "outputs": [
        {
          "internalType": "uint256",
          "name": "",
          "type": "uint256"
        }
      ],
      "stateMutability": "view",
      "type": "function"
    },
    {
      "inputs": [],
      "name": "baseURI",
      "outputs": [
        {
          "internalType": "string",
          "name": "",
          "type": "string"
        }
      ],
      "stateMutability": "view",
      "type": "function"
    },
    {
      "inputs": [
        {
          "internalType": "contract ISuperToken",
          "name": "",
          "type": "address"
        },
        {
          "internalType": "address",
          "name": "",
          "type": "address"
        },
        {
          "internalType": "bytes32",
          "name": "",
          "type": "bytes32"
        },
        {
          "internalType": "bytes",
          "name": "",
          "type": "bytes"
        },
        {
          "internalType": "bytes",
          "name": "",
          "type": "bytes"
        }
      ],
      "name": "beforeAgreementCreated",
      "outputs": [
        {
          "internalType": "bytes",
          "name": "",
          "type": "bytes"
        }
      ],
      "stateMutability": "view",
      "type": "function"
    },
    {
      "inputs": [
        {
          "internalType": "contract ISuperToken",
          "name": "",
          "type": "address"
        },
        {
          "internalType": "address",
          "name": "",
          "type": "address"
        },
        {
          "internalType": "bytes32",
          "name": "",
          "type": "bytes32"
        },
        {
          "internalType": "bytes",
          "name": "",
          "type": "bytes"
        },
        {
          "internalType": "bytes",
          "name": "",
          "type": "bytes"
        }
      ],
      "name": "beforeAgreementTerminated",
      "outputs": [
        {
          "internalType": "bytes",
          "name": "",
          "type": "bytes"
        }
      ],
      "stateMutability": "view",
      "type": "function"
    },
    {
      "inputs": [
        {
          "internalType": "contract ISuperToken",
          "name": "",
          "type": "address"
        },
        {
          "internalType": "address",
          "name": "",
          "type": "address"
        },
        {
          "internalType": "bytes32",
          "name": "",
          "type": "bytes32"
        },
        {
          "internalType": "bytes",
          "name": "",
          "type": "bytes"
        },
        {
          "internalType": "bytes",
          "name": "",
          "type": "bytes"
        }
      ],
      "name": "beforeAgreementUpdated",
      "outputs": [
        {
          "internalType": "bytes",
          "name": "",
          "type": "bytes"
        }
      ],
      "stateMutability": "view",
      "type": "function"
    },
    {
      "inputs": [],
      "name": "currentReceiver",
      "outputs": [
        {
          "internalType": "uint256",
          "name": "startTime",
          "type": "uint256"
        },
        {
          "internalType": "address",
          "name": "receiver",
          "type": "address"
        },
        {
          "internalType": "int96",
          "name": "flowRate",
          "type": "int96"
        }
      ],
      "stateMutability": "view",
      "type": "function"
    },
    {
      "inputs": [
        {
          "internalType": "uint256",
          "name": "tokenId",
          "type": "uint256"
        }
      ],
      "name": "getApproved",
      "outputs": [
        {
          "internalType": "address",
          "name": "",
          "type": "address"
        }
      ],
      "stateMutability": "view",
      "type": "function"
    },
    {
      "inputs": [
        {
          "internalType": "address",
          "name": "owner",
          "type": "address"
        },
        {
          "internalType": "address",
          "name": "operator",
          "type": "address"
        }
      ],
      "name": "isApprovedForAll",
      "outputs": [
        {
          "internalType": "bool",
          "name": "",
          "type": "bool"
        }
      ],
      "stateMutability": "view",
      "type": "function"
    },
    {
      "inputs": [],
      "name": "name",
      "outputs": [
        {
          "internalType": "string",
          "name": "",
          "type": "string"
        }
      ],
      "stateMutability": "view",
      "type": "function"
    },
    {
      "inputs": [
        {
          "internalType": "uint256",
          "name": "tokenId",
          "type": "uint256"
        }
      ],
      "name": "ownerOf",
      "outputs": [
        {
          "internalType": "address",
          "name": "",
          "type": "address"
        }
      ],
      "stateMutability": "view",
      "type": "function"
    },
    {
      "inputs": [
        {
          "internalType": "address",
          "name": "from",
          "type": "address"
        },
        {
          "internalType": "address",
          "name": "to",
          "type": "address"
        },
        {
          "internalType": "uint256",
          "name": "tokenId",
          "type": "uint256"
        }
      ],
      "name": "safeTransferFrom",
      "outputs": [],
      "stateMutability": "nonpayable",
      "type": "function"
    },
    {
      "inputs": [
        {
          "internalType": "address",
          "name": "from",
          "type": "address"
        },
        {
          "internalType": "address",
          "name": "to",
          "type": "address"
        },
        {
          "internalType": "uint256",
          "name": "tokenId",
          "type": "uint256"
        },
        {
          "internalType": "bytes",
          "name": "_data",
          "type": "bytes"
        }
      ],
      "name": "safeTransferFrom",
      "outputs": [],
      "stateMutability": "nonpayable",
      "type": "function"
    },
    {
      "inputs": [
        {
          "internalType": "address",
          "name": "operator",
          "type": "address"
        },
        {
          "internalType": "bool",
          "name": "approved",
          "type": "bool"
        }
      ],
      "name": "setApprovalForAll",
      "outputs": [],
      "stateMutability": "nonpayable",
      "type": "function"
    },
    {
      "inputs": [
        {
          "internalType": "bytes4",
          "name": "interfaceId",
          "type": "bytes4"
        }
      ],
      "name": "supportsInterface",
      "outputs": [
        {
          "internalType": "bool",
          "name": "",
          "type": "bool"
        }
      ],
      "stateMutability": "view",
      "type": "function"
    },
    {
      "inputs": [],
      "name": "symbol",
      "outputs": [
        {
          "internalType": "string",
          "name": "",
          "type": "string"
        }
      ],
      "stateMutability": "view",
      "type": "function"
    },
    {
      "inputs": [
        {
          "internalType": "uint256",
          "name": "index",
          "type": "uint256"
        }
      ],
      "name": "tokenByIndex",
      "outputs": [
        {
          "internalType": "uint256",
          "name": "",
          "type": "uint256"
        }
      ],
      "stateMutability": "view",
      "type": "function"
    },
    {
      "inputs": [
        {
          "internalType": "address",
          "name": "owner",
          "type": "address"
        },
        {
          "internalType": "uint256",
          "name": "index",
          "type": "uint256"
        }
      ],
      "name": "tokenOfOwnerByIndex",
      "outputs": [
        {
          "internalType": "uint256",
          "name": "",
          "type": "uint256"
        }
      ],
      "stateMutability": "view",
      "type": "function"
    },
    {
      "inputs": [
        {
          "internalType": "uint256",
          "name": "tokenId",
          "type": "uint256"
        }
      ],
      "name": "tokenURI",
      "outputs": [
        {
          "internalType": "string",
          "name": "",
          "type": "string"
        }
      ],
      "stateMutability": "view",
      "type": "function"
    },
    {
      "inputs": [],
      "name": "totalSupply",
      "outputs": [
        {
          "internalType": "uint256",
          "name": "",
          "type": "uint256"
        }
      ],
      "stateMutability": "view",
      "type": "function"
    },
    {
      "inputs": [
        {
          "internalType": "address",
          "name": "from",
          "type": "address"
        },
        {
          "internalType": "address",
          "name": "to",
          "type": "address"
        },
        {
          "internalType": "uint256",
          "name": "tokenId",
          "type": "uint256"
        }
      ],
      "name": "transferFrom",
      "outputs": [],
      "stateMutability": "nonpayable",
      "type": "function"
    },
    {
      "inputs": [],
      "name": "uData",
      "outputs": [
        {
          "internalType": "uint8",
          "name": "appLevel",
          "type": "uint8"
        },
        {
          "internalType": "uint8",
          "name": "callType",
          "type": "uint8"
        },
        {
          "internalType": "uint256",
          "name": "timestamp",
          "type": "uint256"
        },
        {
          "internalType": "address",
          "name": "msgSender",
          "type": "address"
        },
        {
          "internalType": "bytes4",
          "name": "agreementSelector",
          "type": "bytes4"
        },
        {
          "internalType": "bytes",
          "name": "userData",
          "type": "bytes"
        },
        {
          "internalType": "uint256",
          "name": "appAllowanceGranted",
          "type": "uint256"
        },
        {
          "internalType": "uint256",
          "name": "appAllowanceWanted",
          "type": "uint256"
        },
        {
          "internalType": "int256",
          "name": "appAllowanceUsed",
          "type": "int256"
        },
        {
          "internalType": "address",
          "name": "appAddress",
          "type": "address"
        },
        {
          "internalType": "contract ISuperfluidToken",
          "name": "appAllowanceToken",
          "type": "address"
        }
      ],
      "stateMutability": "view",
      "type": "function"
    },
    {
      "inputs": [],
      "name": "userData",
      "outputs": [
        {
          "internalType": "string",
          "name": "",
          "type": "string"
        }
      ],
      "stateMutability": "view",
      "type": "function"
    }
  ],
  "transactionHash": "0x5f76e883ebb0e81520db6df233656668ee1549ba953e99ae286971cc47e159f4",
  "args": [
    "0x4B39D511e3Cb3F9e39A4e62fFcd959BaCffaDd3c",
    "nifty_billboard",
    "NFTBoard",
    "0xEB796bdb90fFA0f28255275e16936D25d3418603",
    "0x49e565Ed1bdc17F3d220f72DF0857C26FA83F873",
    "0x5D8B4C2554aeB7e86F387B4d6c00Ac33499Ed01f"
  ],
  "solcInputHash": "b3aebc55cb98bbf08400e5bb47f0d8f8",
  "bytecode": "0x60806040523480156200001157600080fd5b5060405162003ef638038062003ef683398101604081905262000034916200094c565b8282828888886200004c6301ffc9a760e01b620001c3565b8151620000619060069060208501906200082f565b508051620000779060079060208401906200082f565b506200008a6380ac58cd60e01b620001c3565b6200009c635b5e139f60e01b620001c3565b620000ae63780e9d6360e01b620001c3565b50506001600160a01b038416620000c157fe5b6001600160a01b038316620000d257fe5b6001600160a01b038216620000e357fe5b6001600160a01b038116620000f457fe5b600a80546001600160a01b03199081166001600160a01b038781169190911792839055600b80548316878316179055600c80548316868316179055600d8054909216848216179091556040516315a722b960e31b8152641500000001929091169063ad3915c8906200016b90849060040162000d04565b600060405180830381600087803b1580156200018657600080fd5b505af11580156200019b573d6000803e3d6000fd5b505050505050505050620001b78660016200021e60201b60201c565b50505050505062000d56565b6001600160e01b03198082161415620001f95760405162461bcd60e51b8152600401620001f09062000be8565b60405180910390fd5b6001600160e01b0319166000908152602081905260409020805460ff19166001179055565b6001600160a01b038216620002475760405162461bcd60e51b8152600401620001f09062000ccf565b62000252816200030c565b15620002725760405162461bcd60e51b8152600401620001f09062000c1f565b62000280600083836200032f565b6001600160a01b0382166000908152600160209081526040909120620002b191839062000f726200033f821b17901c565b50620002cf818360026200035460201b62000f7e179092919060201c565b5060405181906001600160a01b038416906000907fddf252ad1be2c89b69c2b068fc378daa952ba7f163c4a11628f55a4df523b3ef908290a45050565b6000620003298260026200037460201b62000f9e1790919060201c565b92915050565b6200033a8262000382565b505050565b60006200034d83836200072d565b9392505050565b60006200036c84846001600160a01b0385166200077c565b949350505050565b60006200034d838362000817565b6001600160a01b038116620003ab5760405162461bcd60e51b8152600401620001f09062000c56565b600a54604051631e51d6a760e11b81526001600160a01b0390911690633ca3ad4e90620003dd90849060040162000ac7565b60206040518083038186803b158015620003f657600080fd5b505afa1580156200040b573d6000803e3d6000fd5b505050506040513d601f19601f8201168201806040525081019062000431919062000a09565b15620004515760405162461bcd60e51b8152600401620001f09062000c8d565b600d546001600160a01b03828116911614156200046e576200072a565b600a54600b54600c54600d546040805160008152602081019091526001600160a01b03948516946339255d5b94811693635a5999e360e11b93620004bf939183169230929116906044810162000b7b565b60408051601f198184030181529181526020820180516001600160e01b03166001600160e01b03199485161790525160e085901b909216825262000507929160040162000b1f565b600060405180830381600087803b1580156200052257600080fd5b505af115801562000537573d6000803e3d6000fd5b505050506040513d6000823e601f3d908101601f1916820160405262000561919081019062000a2b565b50600a54600b54600c5460405163e8e7e2d160e01b81526001600160a01b03938416936339255d5b9381169263317e182f60e11b929116908690849063e8e7e2d190620005b5908590309060040162000b61565b60206040518083038186803b158015620005ce57600080fd5b505afa158015620005e3573d6000803e3d6000fd5b505050506040513d601f19601f8201168201806040525081019062000609919062000a61565b6040516024016200061d9392919062000bb1565b60408051601f19818403018152918152602080830180516001600160e01b03166001600160e01b03199586161790528151600081529081019182905260e086901b90931690526200067392916024810162000adb565b600060405180830381600087803b1580156200068e57600080fd5b505af1158015620006a3573d6000803e3d6000fd5b505050506040513d6000823e601f3d908101601f19168201604052620006cd919081019062000a2b565b50600d80546001600160a01b0319166001600160a01b0383811691909117918290556040517f7dfb1d59db37a3fd2e15e796c189dcab714cdbb18650d68a1de58f8fa60718c9926200072192169062000ac7565b60405180910390a15b50565b60006200073b838362000817565b620007735750815460018181018455600084815260208082209093018490558454848252828601909352604090209190915562000329565b50600062000329565b600082815260018401602052604081205480620007e35750506040805180820182528381526020808201848152865460018181018955600089815284812095516002909302909501918255915190820155865486845281880190925292909120556200034d565b82856000016001830381548110620007f757fe5b90600052602060002090600202016001018190555060009150506200034d565b60009081526001919091016020526040902054151590565b828054600181600116156101000203166002900490600052602060002090601f016020900481019282601f106200087257805160ff1916838001178555620008a2565b82800160010185558215620008a2579182015b82811115620008a257825182559160200191906001019062000885565b50620008b0929150620008b4565b5090565b5b80821115620008b05760008155600101620008b5565b600082601f830112620008dc578081fd5b81516001600160401b0380821115620008f3578283fd5b604051601f8301601f19168101602001828111828210171562000914578485fd5b6040528281529250828483016020018610156200093057600080fd5b6200094383602083016020880162000d0d565b50505092915050565b60008060008060008060c0878903121562000965578182fd5b8651620009728162000d40565b60208801519096506001600160401b03808211156200098f578384fd5b6200099d8a838b01620008cb565b96506040890151915080821115620009b3578384fd5b50620009c289828a01620008cb565b9450506060870151620009d58162000d40565b6080880151909350620009e88162000d40565b60a0880151909250620009fb8162000d40565b809150509295509295509295565b60006020828403121562000a1b578081fd5b815180151581146200034d578182fd5b60006020828403121562000a3d578081fd5b81516001600160401b0381111562000a53578182fd5b6200036c84828501620008cb565b60006020828403121562000a73578081fd5b815180600b0b81146200034d578182fd5b6000815180845262000a9e81602086016020860162000d0d565b601f01601f19169290920160200192915050565b6002815261060f60f31b602082015260400190565b6001600160a01b0391909116815260200190565b6001600160a01b038416815260606020820181905260009062000b019083018562000a84565b828103604084015262000b15818562000a84565b9695505050505050565b6001600160a01b038316815260606020820181905260009062000b459083018462000a84565b828103604084015262000b588162000ab2565b95945050505050565b6001600160a01b0392831681529116602082015260400190565b6001600160a01b03858116825284811660208301528316604082015260806060820181905260009062000b159083018462000a84565b6001600160a01b03848116825283166020820152600b82900b604082015260806060820181905260009062000b5890830162000ab2565b6020808252601c908201527f4552433136353a20696e76616c696420696e7465726661636520696400000000604082015260600190565b6020808252601c908201527f4552433732313a20746f6b656e20616c7265616479206d696e74656400000000604082015260600190565b6020808252601c908201527f4e6577207265636569766572206973207a65726f206164647265737300000000604082015260600190565b60208082526022908201527f4e65772072656365697665722063616e206e6f74206265206120737570657241604082015261070760f41b606082015260800190565b6020808252818101527f4552433732313a206d696e7420746f20746865207a65726f2061646472657373604082015260600190565b90815260200190565b60005b8381101562000d2a57818101518382015260200162000d10565b8381111562000d3a576000848401525b50505050565b6001600160a01b03811681146200072a57600080fd5b6131908062000d666000396000f3fe608060405234801561001057600080fd5b50600436106101c45760003560e01c80635f9e7d77116100f9578063a22cb46511610097578063c87b56dd11610071578063c87b56dd14610387578063d86ed3e514610259578063e985e9c51461039a578063ecf08fae146103ad576101c4565b8063a22cb46514610359578063b88d4fde1461036c578063bea6998f1461037f576101c4565b806370a08231116100d357806370a0823114610323578063852e5a0a14610336578063884d1f401461033e57806395d89b4114610351576101c4565b80635f9e7d77146102f55780636352211e146103085780636c0360eb1461031b576101c4565b806323b872dd1161016657806330d9c9151161014057806330d9c915146102a957806342842e0e146102bc5780634f6ccce7146102cf57806353c11f99146102e2576101c4565b806323b872dd1461026c57806328d2bf941461027f5780632f745c5914610296576101c4565b8063081812fc116101a2578063081812fc1461021c578063095ea7b31461022f57806318160ddd14610244578063230dbd2914610259576101c4565b806301ffc9a7146101c957806302964ff1146101f257806306fdde0314610207575b600080fd5b6101dc6101d736600461231a565b6103cc565b6040516101e991906127a3565b60405180910390f35b6101fa6103ef565b6040516101e99190612752565b61020f6103fe565b6040516101e991906127dd565b6101fa61022a366004612672565b610494565b61024261023d3660046122bb565b6104e0565b005b61024c610578565b6040516101e99190612f9e565b61020f610267366004612482565b610589565b61024261027a3660046121ac565b6107ce565b610287610806565b6040516101e993929190612fa7565b61024c6102a43660046122bb565b6108c9565b61020f6102b73660046123e6565b6108f4565b6102426102ca3660046121ac565b61090e565b61024c6102dd366004612672565b610929565b61020f6102f0366004612482565b61093f565b61020f6103033660046123e6565b610a04565b6101fa610316366004612672565b610a1e565b61020f610a46565b61024c610331366004612158565b610aa7565b6101fa610af0565b61020f61034c3660046123e6565b610aff565b61020f610b19565b61024261036736600461228e565b610b7a565b61024261037a3660046121ec565b610c48565b61020f610c87565b61020f610395366004612672565b610d15565b6101dc6103a8366004612174565b610e5b565b6103b5610e89565b6040516101e99b9a99989796959493929190612fc9565b6001600160e01b0319811660009081526020819052604090205460ff165b919050565b600d546001600160a01b031681565b60068054604080516020601f600260001961010060018816150201909516949094049384018190048102820181019092528281526060939092909183018282801561048a5780601f1061045f5761010080835404028352916020019161048a565b820191906000526020600020905b81548152906001019060200180831161046d57829003601f168201915b5050505050905090565b600061049f82610faa565b6104c45760405162461bcd60e51b81526004016104bb90612d53565b60405180910390fd5b506000908152600460205260409020546001600160a01b031690565b60006104eb82610a1e565b9050806001600160a01b0316836001600160a01b0316141561051f5760405162461bcd60e51b81526004016104bb90612e37565b806001600160a01b0316610531610fb7565b6001600160a01b0316148061054d575061054d816103a8610fb7565b6105695760405162461bcd60e51b81526004016104bb90612c28565b6105738383610fbb565b505050565b60006105846002611029565b905090565b6060898961059682611034565b6105b25760405162461bcd60e51b81526004016104bb90612a5e565b6105bb81611048565b6105d75760405162461bcd60e51b81526004016104bb906129cb565b600a546001600160a01b031633146106015760405162461bcd60e51b81526004016104bb90612ae8565b610609611fa6565b600a54604051631fb6491d60e11b81526001600160a01b0390911690633f6c923a9061063b90899089906004016127ae565b60006040518083038186803b15801561065357600080fd5b505afa158015610667573d6000803e3d6000fd5b505050506040513d6000823e601f3d908101601f1916820160405261068f9190810190612564565b8051600e805460208085015160ff1990921660ff9485161761ff00191661010094909216939093021781556040830151600f5560608301516010805460808601516001600160a01b03199091166001600160a01b039093169290921763ffffffff60a01b1916600160a01b60e09390931c9290920291909117905560a08301518051939450849391926107289260119290910190612001565b5060c0820151600482015560e0820151600582015561010082015160068201556101208201516007820180546001600160a01b03199081166001600160a01b03938416179091556101409093015160089092018054909316911617905560a0810151805161079e91602091810182019101612352565b80516107b291601791602090910190612001565b506107bd86866110e3565b9d9c50505050505050505050505050565b6107df6107d9610fb7565b826114a2565b6107fb5760405162461bcd60e51b81526004016104bb90612ec7565b610573838383611527565b600d54600090819081906001600160a01b0316156108c457600b54600c54600d54604051631cd43d1160e31b81526001600160a01b039384169363e6a1e8889361085c93908216923092909116906004016128c7565b60806040518083038186803b15801561087457600080fd5b505afa158015610888573d6000803e3d6000fd5b505050506040513d601f19601f820116820180604052508101906108ac919061268a565b5050600d549194506001600160a01b03909116925090505b909192565b6001600160a01b03821660009081526001602052604081206108eb9083611635565b90505b92915050565b606060405162461bcd60e51b81526004016104bb90612f4f565b61057383838360405180602001604052806000815250610c48565b600080610937600284611641565b509392505050565b600a546060906001600160a01b0316331461096c5760405162461bcd60e51b81526004016104bb90612ae8565b6109758a611034565b1580610987575061098589611048565b155b156109cb5782828080601f0160208091040260200160405190810160405280939291908181526020018383808284376000920191909152509293506109f792505050565b6040805160208101918290526000908190526109e991601791612001565b506109f483836110e3565b90505b9998505050505050505050565b606060405162461bcd60e51b81526004016104bb90612a95565b60006108ee82604051806060016040528060298152602001613132602991396002919061165f565b60098054604080516020601f600260001961010060018816150201909516949094049384018190048102820181019092528281526060939092909183018282801561048a5780601f1061045f5761010080835404028352916020019161048a565b60006001600160a01b038216610acf5760405162461bcd60e51b81526004016104bb90612c85565b6001600160a01b03821660009081526001602052604090206108ee90611029565b600a546001600160a01b031681565b606060405162461bcd60e51b81526004016104bb90612e78565b60078054604080516020601f600260001961010060018816150201909516949094049384018190048102820181019092528281526060939092909183018282801561048a5780601f1061045f5761010080835404028352916020019161048a565b610b82610fb7565b6001600160a01b0316826001600160a01b03161415610bb35760405162461bcd60e51b81526004016104bb90612b6e565b8060056000610bc0610fb7565b6001600160a01b03908116825260208083019390935260409182016000908120918716808252919093529120805460ff191692151592909217909155610c04610fb7565b6001600160a01b03167f17307eab39ab6107e8899845ad3d59bd9653f200f220920489ca2b5937696c3183604051610c3c91906127a3565b60405180910390a35050565b610c59610c53610fb7565b836114a2565b610c755760405162461bcd60e51b81526004016104bb90612ec7565b610c818484848461166c565b50505050565b6017805460408051602060026001851615610100026000190190941693909304601f81018490048402820184019092528181529291830182828015610d0d5780601f10610ce257610100808354040283529160200191610d0d565b820191906000526020600020905b815481529060010190602001808311610cf057829003601f168201915b505050505081565b6060610d2082610faa565b610d3c5760405162461bcd60e51b81526004016104bb90612de8565b60008281526008602090815260409182902080548351601f6002600019610100600186161502019093169290920491820184900484028101840190945280845260609392830182828015610dd15780601f10610da657610100808354040283529160200191610dd1565b820191906000526020600020905b815481529060010190602001808311610db457829003601f168201915b505050505090506060610de2610a46565b9050805160001415610df6575090506103ea565b815115610e28578082604051602001610e10929190612723565b604051602081830303815290604052925050506103ea565b80610e328561169f565b604051602001610e43929190612723565b60405160208183030381529060405292505050919050565b6001600160a01b03918216600090815260056020908152604080832093909416825291909152205460ff1690565b600e8054600f54601054601180546040805160206002610100600186161581026000190190951604601f810182900482028301820190935282825260ff8089169994909804909716966001600160a01b03861695600160a01b900460e01b94919290830182828015610f3c5780601f10610f1157610100808354040283529160200191610f3c565b820191906000526020600020905b815481529060010190602001808311610f1f57829003601f168201915b50505060048401546005850154600686015460078701546008909701549596929591945092506001600160a01b0391821691168b565b60006108eb838361177a565b6000610f9484846001600160a01b0385166117c4565b90505b9392505050565b60006108eb838361185b565b60006108ee600283610f9e565b3390565b600081815260046020526040902080546001600160a01b0319166001600160a01b0384169081179091558190610ff082610a1e565b6001600160a01b03167f8c5be1e5ebec7d5bd14f71427d1e84f3dd0314c0f7b2291e5b200ac8c7c3b92560405160405180910390a45050565b60006108ee82611873565b600c546001600160a01b0390811691161490565b60007fa9214cc96615e0085d3bb077758db69497dc2dce3b2b1e97bc93c3d18d83efd3826001600160a01b0316637730599e6040518163ffffffff1660e01b815260040160206040518083038186803b1580156110a457600080fd5b505afa1580156110b8573d6000803e3d6000fd5b505050506040513d601f19601f820116820180604052508101906110dc9190612302565b1492915050565b606082828080601f0160208091040260200160405190810160405280939291908181526020018383808284376000920182905250600b54600c5460405163e8e7e2d160e01b815296975091956001600160a01b03918216955063e8e7e2d19450611155935091169030906004016128ad565b60206040518083038186803b15801561116d57600080fd5b505afa158015611181573d6000803e3d6000fd5b505050506040513d601f19601f820116820180604052508101906111a59190612549565b600b54600c54600d54604051631cd43d1160e31b81529394506000936001600160a01b039384169363e6a1e888936111e993908216923092909116906004016128c7565b60806040518083038186803b15801561120157600080fd5b505afa158015611215573d6000803e3d6000fd5b505050506040513d601f19601f82011682018060405250810190611239919061268a565b5090925050508181016000600b82900b1215611253576000035b600b81900b61135157600a54600b54600c54600d546040805160008152602081019091526001600160a01b0394851694634329d29394811693635a5999e360e11b936112ab93918316923092911690604481016128ea565b60408051601f198184030181529181526020820180516001600160e01b03166001600160e01b03199485161790525160e085901b90921682526112f392918990600401612864565b600060405180830381600087803b15801561130d57600080fd5b505af1158015611321573d6000803e3d6000fd5b505050506040513d6000823e601f3d908101601f191682016040526113499190810190612385565b509350611499565b600b82900b156113a957600a54600b54600c54600d546040805160008152602081019091526001600160a01b0394851694634329d293948116936328104d3160e11b936112ab9391831692169088906044810161291e565b600a54600b54600c54600d546040805160008152602081019091526001600160a01b0394851694634329d2939481169363317e182f60e11b936113f79391831692169088906044810161291e565b60408051601f198184030181529181526020820180516001600160e01b03166001600160e01b03199485161790525160e085901b909216825261143f92918990600401612864565b600060405180830381600087803b15801561145957600080fd5b505af115801561146d573d6000803e3d6000fd5b505050506040513d6000823e601f3d908101601f191682016040526114959190810190612385565b5093505b50505092915050565b60006114ad82610faa565b6114c95760405162461bcd60e51b81526004016104bb90612bdc565b60006114d483610a1e565b9050806001600160a01b0316846001600160a01b0316148061150f5750836001600160a01b031661150484610494565b6001600160a01b0316145b8061151f575061151f8185610e5b565b949350505050565b826001600160a01b031661153a82610a1e565b6001600160a01b0316146115605760405162461bcd60e51b81526004016104bb90612d9f565b6001600160a01b0382166115865760405162461bcd60e51b81526004016104bb90612b2a565b611591838383611877565b61159c600082610fbb565b6001600160a01b03831660009081526001602052604090206115be9082611880565b506001600160a01b03821660009081526001602052604090206115e19082610f72565b506115ee60028284610f7e565b5080826001600160a01b0316846001600160a01b03167fddf252ad1be2c89b69c2b068fc378daa952ba7f163c4a11628f55a4df523b3ef60405160405180910390a4505050565b60006108eb838361188c565b600080808061165086866118d1565b909450925050505b9250929050565b6000610f9484848461192d565b611677848484611527565b6116838484848461198c565b610c815760405162461bcd60e51b81526004016104bb90612a0c565b6060816116c457506040805180820190915260018152600360fc1b60208201526103ea565b8160005b81156116dc57600101600a820491506116c8565b60608167ffffffffffffffff811180156116f557600080fd5b506040519080825280601f01601f191660200182016040528015611720576020820181803683370190505b50859350905060001982015b831561177157600a840660300160f81b8282806001900393508151811061174f57fe5b60200101906001600160f81b031916908160001a905350600a8404935061172c565b50949350505050565b6000611786838361185b565b6117bc575081546001818101845560008481526020808220909301849055845484825282860190935260409020919091556108ee565b5060006108ee565b600082815260018401602052604081205480611829575050604080518082018252838152602080820184815286546001818101895560008981528481209551600290930290950191825591519082015586548684528188019092529290912055610f97565b8285600001600183038154811061183c57fe5b9060005260206000209060020201600101819055506000915050610f97565b60009081526001919091016020526040902054151590565b5490565b61057382611a6b565b60006108eb8383611df0565b815460009082106118af5760405162461bcd60e51b81526004016104bb90612989565b8260000182815481106118be57fe5b9060005260206000200154905092915050565b8154600090819083106118f65760405162461bcd60e51b81526004016104bb90612d11565b600084600001848154811061190757fe5b906000526020600020906002020190508060000154816001015492509250509250929050565b6000828152600184016020526040812054828161195d5760405162461bcd60e51b81526004016104bb91906127dd565b5084600001600182038154811061197057fe5b9060005260206000209060020201600101549150509392505050565b60006119a0846001600160a01b0316611ebd565b6119ac5750600161151f565b6060611a34630a85bd0160e11b6119c1610fb7565b8887876040516024016119d79493929190612766565b604051602081830303815290604052906001600160e01b0319166020820180516001600160e01b038381831617835250505050604051806060016040528060328152602001613100603291396001600160a01b0388169190611ec3565b9050600081806020019051810190611a4c9190612336565b6001600160e01b031916630a85bd0160e11b1492505050949350505050565b6001600160a01b038116611a915760405162461bcd60e51b81526004016104bb90612ba5565b600a54604051631e51d6a760e11b81526001600160a01b0390911690633ca3ad4e90611ac1908490600401612752565b60206040518083038186803b158015611ad957600080fd5b505afa158015611aed573d6000803e3d6000fd5b505050506040513d601f19601f82011682018060405250810190611b1191906122e6565b15611b2e5760405162461bcd60e51b81526004016104bb90612ccf565b600d546001600160a01b0382811691161415611b4957611ded565b600a54600b54600c54600d546040805160008152602081019091526001600160a01b03948516946339255d5b94811693635a5999e360e11b93611b9893918316923092911690604481016128ea565b60408051601f198184030181529181526020820180516001600160e01b03166001600160e01b03199485161790525160e085901b9092168252611bde9291600401612826565b600060405180830381600087803b158015611bf857600080fd5b505af1158015611c0c573d6000803e3d6000fd5b505050506040513d6000823e601f3d908101601f19168201604052611c349190810190612352565b50600a54600b54600c5460405163e8e7e2d160e01b81526001600160a01b03938416936339255d5b9381169263317e182f60e11b929116908690849063e8e7e2d190611c8690859030906004016128ad565b60206040518083038186803b158015611c9e57600080fd5b505afa158015611cb2573d6000803e3d6000fd5b505050506040513d601f19601f82011682018060405250810190611cd69190612549565b604051602401611ce893929190612954565b60408051601f19818403018152918152602080830180516001600160e01b03166001600160e01b03199586161790528151600081529081019182905260e086901b9093169052611d3c9291602481016127f0565b600060405180830381600087803b158015611d5657600080fd5b505af1158015611d6a573d6000803e3d6000fd5b505050506040513d6000823e601f3d908101601f19168201604052611d929190810190612352565b50600d80546001600160a01b0319166001600160a01b0383811691909117918290556040517f7dfb1d59db37a3fd2e15e796c189dcab714cdbb18650d68a1de58f8fa60718c992611de4921690612752565b60405180910390a15b50565b60008181526001830160205260408120548015611eac5783546000198083019190810190600090879083908110611e2357fe5b9060005260206000200154905080876000018481548110611e4057fe5b600091825260208083209091019290925582815260018981019092526040902090840190558654879080611e7057fe5b600190038181906000526020600020016000905590558660010160008781526020019081526020016000206000905560019450505050506108ee565b60009150506108ee565b5092915050565b3b151590565b6060610f94848460008585611ed785611ebd565b611ef35760405162461bcd60e51b81526004016104bb90612f18565b60006060866001600160a01b03168587604051611f109190612707565b60006040518083038185875af1925050503d8060008114611f4d576040519150601f19603f3d011682016040523d82523d6000602084013e611f52565b606091505b5091509150611f62828286611f6d565b979650505050505050565b60608315611f7c575081610f97565b825115611f8c5782518084602001fd5b8160405162461bcd60e51b81526004016104bb91906127dd565b604080516101608101825260008082526020820181905291810182905260608082018390526080820183905260a082015260c0810182905260e081018290526101008101829052610120810182905261014081019190915290565b828054600181600116156101000203166002900490600052602060002090601f016020900481019282601f1061204257805160ff191683800117855561206f565b8280016001018555821561206f579182015b8281111561206f578251825591602001919060010190612054565b5061207b92915061207f565b5090565b5b8082111561207b5760008155600101612080565b80516108ee816130c6565b80516108ee816130e9565b60008083601f8401126120bb578182fd5b50813567ffffffffffffffff8111156120d2578182fd5b60208301915083602082850101111561165857600080fd5b600082601f8301126120fa578081fd5b815161210d61210882613076565b61304f565b915080825283602082850101111561212457600080fd5b611eb681602084016020860161309a565b8051600b81900b81146108ee57600080fd5b805160ff811681146108ee57600080fd5b600060208284031215612169578081fd5b8135610f97816130c6565b60008060408385031215612186578081fd5b8235612191816130c6565b915060208301356121a1816130c6565b809150509250929050565b6000806000606084860312156121c0578081fd5b83356121cb816130c6565b925060208401356121db816130c6565b929592945050506040919091013590565b60008060008060808587031215612201578081fd5b843561220c816130c6565b9350602085013561221c816130c6565b925060408501359150606085013567ffffffffffffffff81111561223e578182fd5b8501601f8101871361224e578182fd5b803561225c61210882613076565b818152886020838501011115612270578384fd5b81602084016020830137908101602001929092525092959194509250565b600080604083850312156122a0578182fd5b82356122ab816130c6565b915060208301356121a1816130db565b600080604083850312156122cd578182fd5b82356122d8816130c6565b946020939093013593505050565b6000602082840312156122f7578081fd5b8151610f97816130db565b600060208284031215612313578081fd5b5051919050565b60006020828403121561232b578081fd5b8135610f97816130e9565b600060208284031215612347578081fd5b8151610f97816130e9565b600060208284031215612363578081fd5b815167ffffffffffffffff811115612379578182fd5b61151f848285016120ea565b60008060408385031215612397578182fd5b825167ffffffffffffffff808211156123ae578384fd5b6123ba868387016120ea565b935060208501519150808211156123cf578283fd5b506123dc858286016120ea565b9150509250929050565b600080600080600080600060a0888a031215612400578485fd5b873561240b816130c6565b9650602088013561241b816130c6565b955060408801359450606088013567ffffffffffffffff8082111561243e578485fd5b61244a8b838c016120aa565b909650945060808a0135915080821115612462578384fd5b5061246f8a828b016120aa565b989b979a50959850939692959293505050565b600080600080600080600080600060c08a8c03121561249f578283fd5b89356124aa816130c6565b985060208a01356124ba816130c6565b975060408a0135965060608a013567ffffffffffffffff808211156124dd578485fd5b6124e98d838e016120aa565b909850965060808c0135915080821115612501578485fd5b61250d8d838e016120aa565b909650945060a08c0135915080821115612525578384fd5b506125328c828d016120aa565b915080935050809150509295985092959850929598565b60006020828403121561255a578081fd5b6108eb8383612135565b600060208284031215612575578081fd5b815167ffffffffffffffff8082111561258c578283fd5b81840191506101608083870312156125a2578384fd5b6125ab8161304f565b90506125b78684612147565b81526125c68660208501612147565b6020820152604083015160408201526125e28660608501612094565b60608201526125f4866080850161209f565b608082015260a08301518281111561260a578485fd5b612616878286016120ea565b60a08301525060c083015160c082015260e083015160e082015261010091508183015182820152610120915061264e86838501612094565b82820152610140915061266386838501612094565b91810191909152949350505050565b600060208284031215612683578081fd5b5035919050565b6000806000806080858703121561269f578182fd5b845193506126b08660208701612135565b6040860151606090960151949790965092505050565b600081518084526126de81602086016020860161309a565b601f01601f19169290920160200192915050565b6002815261060f60f31b602082015260400190565b6000825161271981846020870161309a565b9190910192915050565b6000835161273581846020880161309a565b83519083019061274981836020880161309a565b01949350505050565b6001600160a01b0391909116815260200190565b6001600160a01b0385811682528416602082015260408101839052608060608201819052600090612799908301846126c6565b9695505050505050565b901515815260200190565b60006020825282602083015282846040840137818301604090810191909152601f909201601f19160101919050565b6000602082526108eb60208301846126c6565b6001600160a01b0384168152606060208201819052600090612814908301856126c6565b828103604084015261279981856126c6565b6001600160a01b038316815260606020820181905260009061284a908301846126c6565b828103604084015261285b816126f2565b95945050505050565b6001600160a01b0384168152608060208201819052600090612888908301856126c6565b8281036040840152612899816126f2565b9050828103606084015261279981856126c6565b6001600160a01b0392831681529116602082015260400190565b6001600160a01b0393841681529183166020830152909116604082015260600190565b6001600160a01b038581168252848116602083015283166040820152608060608201819052600090612799908301846126c6565b6001600160a01b03858116825284166020820152600b83900b6040820152608060608201819052600090612799908301846126c6565b6001600160a01b03848116825283166020820152600b82900b604082015260806060820181905260009061285b9083016126f2565b60208082526022908201527f456e756d657261626c655365743a20696e646578206f7574206f6620626f756e604082015261647360f01b606082015260800190565b60208082526021908201527f5265646972656374416c6c3a206f6e6c7920434641763120737570706f7274656040820152601960fa1b606082015260800190565b60208082526032908201527f4552433732313a207472616e7366657220746f206e6f6e20455243373231526560408201527131b2b4bb32b91034b6b83632b6b2b73a32b960711b606082015260800190565b6020808252601f908201527f5265646972656374416c6c3a206e6f7420616363657074656420746f6b656e00604082015260600190565b60208082526033908201527f556e737570706f727465642063616c6c6261636b202d20204265666f7265204160408201527219dc99595b595b9d0815195c9b5a5b985d1959606a1b606082015260800190565b60208082526022908201527f5265646972656374416c6c3a20737570706f7274206f6e6c79206f6e6520686f6040820152611cdd60f21b606082015260800190565b60208082526024908201527f4552433732313a207472616e7366657220746f20746865207a65726f206164646040820152637265737360e01b606082015260800190565b60208082526019908201527f4552433732313a20617070726f766520746f2063616c6c657200000000000000604082015260600190565b6020808252601c908201527f4e6577207265636569766572206973207a65726f206164647265737300000000604082015260600190565b6020808252602c908201527f4552433732313a206f70657261746f7220717565727920666f72206e6f6e657860408201526b34b9ba32b73a103a37b5b2b760a11b606082015260800190565b60208082526038908201527f4552433732313a20617070726f76652063616c6c6572206973206e6f74206f7760408201527f6e6572206e6f7220617070726f76656420666f7220616c6c0000000000000000606082015260800190565b6020808252602a908201527f4552433732313a2062616c616e636520717565727920666f7220746865207a65604082015269726f206164647265737360b01b606082015260800190565b60208082526022908201527f4e65772072656365697665722063616e206e6f74206265206120737570657241604082015261070760f41b606082015260800190565b60208082526022908201527f456e756d657261626c654d61703a20696e646578206f7574206f6620626f756e604082015261647360f01b606082015260800190565b6020808252602c908201527f4552433732313a20617070726f76656420717565727920666f72206e6f6e657860408201526b34b9ba32b73a103a37b5b2b760a11b606082015260800190565b60208082526029908201527f4552433732313a207472616e73666572206f6620746f6b656e2074686174206960408201526839903737ba1037bbb760b91b606082015260800190565b6020808252602f908201527f4552433732314d657461646174613a2055524920717565727920666f72206e6f60408201526e3732bc34b9ba32b73a103a37b5b2b760891b606082015260800190565b60208082526021908201527f4552433732313a20617070726f76616c20746f2063757272656e74206f776e656040820152603960f91b606082015260800190565b6020808252602f908201527f556e737570706f727465642063616c6c6261636b202d204265666f726520416760408201526e1c99595b595b9d081d5c19185d1959608a1b606082015260800190565b60208082526031908201527f4552433732313a207472616e736665722063616c6c6572206973206e6f74206f6040820152701ddb995c881b9bdc88185c1c1c9bdd9959607a1b606082015260800190565b6020808252601d908201527f416464726573733a2063616c6c20746f206e6f6e2d636f6e7472616374000000604082015260600190565b6020808252602f908201527f556e737570706f727465642063616c6c6261636b202d204265666f726520416760408201526e1c99595b595b9d0810dc99585d1959608a1b606082015260800190565b90815260200190565b9283526001600160a01b03919091166020830152600b0b604082015260600190565b60ff8c811682528b166020820152604081018a90526001600160a01b0389811660608301526001600160e01b03198916608083015261016060a083018190526000916130178483018b6126c6565b60c085019990995260e08401979097525050610100810193909352908316610120830152909116610140909101529695505050505050565b60405181810167ffffffffffffffff8111828210171561306e57600080fd5b604052919050565b600067ffffffffffffffff82111561308c578081fd5b50601f01601f191660200190565b60005b838110156130b557818101518382015260200161309d565b83811115610c815750506000910152565b6001600160a01b0381168114611ded57600080fd5b8015158114611ded57600080fd5b6001600160e01b031981168114611ded57600080fdfe4552433732313a207472616e7366657220746f206e6f6e20455243373231526563656976657220696d706c656d656e7465724552433732313a206f776e657220717565727920666f72206e6f6e6578697374656e7420746f6b656ea2646970667358221220550e2c6fe09b322c0084ad32d71bd2fd7e18974b1df44112bab06177e949bb1864736f6c63430007000033",
  "devdoc": {
    "kind": "dev",
    "methods": {
      "approve(address,uint256)": {
        "details": "See {IERC721-approve}."
      },
      "balanceOf(address)": {
        "details": "See {IERC721-balanceOf}."
      },
      "baseURI()": {
        "details": "Returns the base URI set via {_setBaseURI}. This will be automatically added as a prefix in {tokenURI} to each token's URI, or to the token ID if no specific URI is set for that token ID."
      },
      "getApproved(uint256)": {
        "details": "See {IERC721-getApproved}."
      },
      "isApprovedForAll(address,address)": {
        "details": "See {IERC721-isApprovedForAll}."
      },
      "name()": {
        "details": "See {IERC721Metadata-name}."
      },
      "ownerOf(uint256)": {
        "details": "See {IERC721-ownerOf}."
      },
      "safeTransferFrom(address,address,uint256)": {
        "details": "See {IERC721-safeTransferFrom}."
      },
      "safeTransferFrom(address,address,uint256,bytes)": {
        "details": "See {IERC721-safeTransferFrom}."
      },
      "setApprovalForAll(address,bool)": {
        "details": "See {IERC721-setApprovalForAll}."
      },
      "supportsInterface(bytes4)": {
        "details": "See {IERC165-supportsInterface}. Time complexity O(1), guaranteed to always use less than 30 000 gas."
      },
      "symbol()": {
        "details": "See {IERC721Metadata-symbol}."
      },
      "tokenByIndex(uint256)": {
        "details": "See {IERC721Enumerable-tokenByIndex}."
      },
      "tokenOfOwnerByIndex(address,uint256)": {
        "details": "See {IERC721Enumerable-tokenOfOwnerByIndex}."
      },
      "tokenURI(uint256)": {
        "details": "See {IERC721Metadata-tokenURI}."
      },
      "totalSupply()": {
        "details": "See {IERC721Enumerable-totalSupply}."
      },
      "transferFrom(address,address,uint256)": {
        "details": "See {IERC721-transferFrom}."
      }
    },
    "version": 1
  },
  "userdoc": {
    "kind": "user",
    "methods": {},
    "version": 1
  },
  "storageLayout": {
    "storage": [
      {
        "astId": 13,
        "contract": "contracts/TradeableCashflow.sol:TradeableCashflow",
        "label": "_supportedInterfaces",
        "offset": 0,
        "slot": "0",
        "type": "t_mapping(t_bytes4,t_bool)"
      },
      {
        "astId": 547,
        "contract": "contracts/TradeableCashflow.sol:TradeableCashflow",
        "label": "_holderTokens",
        "offset": 0,
        "slot": "1",
        "type": "t_mapping(t_address,t_struct(UintSet)3072_storage)"
      },
      {
        "astId": 549,
        "contract": "contracts/TradeableCashflow.sol:TradeableCashflow",
        "label": "_tokenOwners",
        "offset": 0,
        "slot": "2",
        "type": "t_struct(UintToAddressMap)2449_storage"
      },
      {
        "astId": 553,
        "contract": "contracts/TradeableCashflow.sol:TradeableCashflow",
        "label": "_tokenApprovals",
        "offset": 0,
        "slot": "4",
        "type": "t_mapping(t_uint256,t_address)"
      },
      {
        "astId": 559,
        "contract": "contracts/TradeableCashflow.sol:TradeableCashflow",
        "label": "_operatorApprovals",
        "offset": 0,
        "slot": "5",
        "type": "t_mapping(t_address,t_mapping(t_address,t_bool))"
      },
      {
        "astId": 561,
        "contract": "contracts/TradeableCashflow.sol:TradeableCashflow",
        "label": "_name",
        "offset": 0,
        "slot": "6",
        "type": "t_string_storage"
      },
      {
        "astId": 563,
        "contract": "contracts/TradeableCashflow.sol:TradeableCashflow",
        "label": "_symbol",
        "offset": 0,
        "slot": "7",
        "type": "t_string_storage"
      },
      {
        "astId": 567,
        "contract": "contracts/TradeableCashflow.sol:TradeableCashflow",
        "label": "_tokenURIs",
        "offset": 0,
        "slot": "8",
        "type": "t_mapping(t_uint256,t_string_storage)"
      },
      {
        "astId": 569,
        "contract": "contracts/TradeableCashflow.sol:TradeableCashflow",
        "label": "_baseURI",
        "offset": 0,
        "slot": "9",
        "type": "t_string_storage"
      },
      {
        "astId": 5213,
        "contract": "contracts/TradeableCashflow.sol:TradeableCashflow",
        "label": "_host",
        "offset": 0,
        "slot": "10",
        "type": "t_contract(ISuperfluid)4833"
      },
      {
        "astId": 5215,
        "contract": "contracts/TradeableCashflow.sol:TradeableCashflow",
        "label": "_cfa",
        "offset": 0,
        "slot": "11",
        "type": "t_contract(IConstantFlowAgreementV1)3557"
      },
      {
        "astId": 5217,
        "contract": "contracts/TradeableCashflow.sol:TradeableCashflow",
        "label": "_acceptedToken",
        "offset": 0,
        "slot": "12",
        "type": "t_contract(ISuperToken)4345"
      },
      {
        "astId": 5219,
        "contract": "contracts/TradeableCashflow.sol:TradeableCashflow",
        "label": "_receiver",
        "offset": 0,
        "slot": "13",
        "type": "t_address"
      },
      {
        "astId": 5590,
        "contract": "contracts/TradeableCashflow.sol:TradeableCashflow",
        "label": "uData",
        "offset": 0,
        "slot": "14",
        "type": "t_struct(Context)4771_storage"
      },
      {
        "astId": 5592,
        "contract": "contracts/TradeableCashflow.sol:TradeableCashflow",
        "label": "userData",
        "offset": 0,
        "slot": "23",
        "type": "t_string_storage"
      }
    ],
    "types": {
      "t_address": {
        "encoding": "inplace",
        "label": "address",
        "numberOfBytes": "20"
      },
      "t_array(t_bytes32)dyn_storage": {
        "base": "t_bytes32",
        "encoding": "dynamic_array",
        "label": "bytes32[]",
        "numberOfBytes": "32"
      },
      "t_array(t_struct(MapEntry)2123_storage)dyn_storage": {
        "base": "t_struct(MapEntry)2123_storage",
        "encoding": "dynamic_array",
        "label": "struct EnumerableMap.MapEntry[]",
        "numberOfBytes": "32"
      },
      "t_bool": {
        "encoding": "inplace",
        "label": "bool",
        "numberOfBytes": "1"
      },
      "t_bytes32": {
        "encoding": "inplace",
        "label": "bytes32",
        "numberOfBytes": "32"
      },
      "t_bytes4": {
        "encoding": "inplace",
        "label": "bytes4",
        "numberOfBytes": "4"
      },
      "t_bytes_storage": {
        "encoding": "bytes",
        "label": "bytes",
        "numberOfBytes": "32"
      },
      "t_contract(IConstantFlowAgreementV1)3557": {
        "encoding": "inplace",
        "label": "contract IConstantFlowAgreementV1",
        "numberOfBytes": "20"
      },
      "t_contract(ISuperToken)4345": {
        "encoding": "inplace",
        "label": "contract ISuperToken",
        "numberOfBytes": "20"
      },
      "t_contract(ISuperfluid)4833": {
        "encoding": "inplace",
        "label": "contract ISuperfluid",
        "numberOfBytes": "20"
      },
      "t_contract(ISuperfluidToken)5160": {
        "encoding": "inplace",
        "label": "contract ISuperfluidToken",
        "numberOfBytes": "20"
      },
      "t_int256": {
        "encoding": "inplace",
        "label": "int256",
        "numberOfBytes": "32"
      },
      "t_mapping(t_address,t_bool)": {
        "encoding": "mapping",
        "key": "t_address",
        "label": "mapping(address => bool)",
        "numberOfBytes": "32",
        "value": "t_bool"
      },
      "t_mapping(t_address,t_mapping(t_address,t_bool))": {
        "encoding": "mapping",
        "key": "t_address",
        "label": "mapping(address => mapping(address => bool))",
        "numberOfBytes": "32",
        "value": "t_mapping(t_address,t_bool)"
      },
      "t_mapping(t_address,t_struct(UintSet)3072_storage)": {
        "encoding": "mapping",
        "key": "t_address",
        "label": "mapping(address => struct EnumerableSet.UintSet)",
        "numberOfBytes": "32",
        "value": "t_struct(UintSet)3072_storage"
      },
      "t_mapping(t_bytes32,t_uint256)": {
        "encoding": "mapping",
        "key": "t_bytes32",
        "label": "mapping(bytes32 => uint256)",
        "numberOfBytes": "32",
        "value": "t_uint256"
      },
      "t_mapping(t_bytes4,t_bool)": {
        "encoding": "mapping",
        "key": "t_bytes4",
        "label": "mapping(bytes4 => bool)",
        "numberOfBytes": "32",
        "value": "t_bool"
      },
      "t_mapping(t_uint256,t_address)": {
        "encoding": "mapping",
        "key": "t_uint256",
        "label": "mapping(uint256 => address)",
        "numberOfBytes": "32",
        "value": "t_address"
      },
      "t_mapping(t_uint256,t_string_storage)": {
        "encoding": "mapping",
        "key": "t_uint256",
        "label": "mapping(uint256 => string)",
        "numberOfBytes": "32",
        "value": "t_string_storage"
      },
      "t_string_storage": {
        "encoding": "bytes",
        "label": "string",
        "numberOfBytes": "32"
      },
      "t_struct(Context)4771_storage": {
        "encoding": "inplace",
        "label": "struct ISuperfluid.Context",
        "members": [
          {
            "astId": 4750,
            "contract": "contracts/TradeableCashflow.sol:TradeableCashflow",
            "label": "appLevel",
            "offset": 0,
            "slot": "0",
            "type": "t_uint8"
          },
          {
            "astId": 4752,
            "contract": "contracts/TradeableCashflow.sol:TradeableCashflow",
            "label": "callType",
            "offset": 1,
            "slot": "0",
            "type": "t_uint8"
          },
          {
            "astId": 4754,
            "contract": "contracts/TradeableCashflow.sol:TradeableCashflow",
            "label": "timestamp",
            "offset": 0,
            "slot": "1",
            "type": "t_uint256"
          },
          {
            "astId": 4756,
            "contract": "contracts/TradeableCashflow.sol:TradeableCashflow",
            "label": "msgSender",
            "offset": 0,
            "slot": "2",
            "type": "t_address"
          },
          {
            "astId": 4758,
            "contract": "contracts/TradeableCashflow.sol:TradeableCashflow",
            "label": "agreementSelector",
            "offset": 20,
            "slot": "2",
            "type": "t_bytes4"
          },
          {
            "astId": 4760,
            "contract": "contracts/TradeableCashflow.sol:TradeableCashflow",
            "label": "userData",
            "offset": 0,
            "slot": "3",
            "type": "t_bytes_storage"
          },
          {
            "astId": 4762,
            "contract": "contracts/TradeableCashflow.sol:TradeableCashflow",
            "label": "appAllowanceGranted",
            "offset": 0,
            "slot": "4",
            "type": "t_uint256"
          },
          {
            "astId": 4764,
            "contract": "contracts/TradeableCashflow.sol:TradeableCashflow",
            "label": "appAllowanceWanted",
            "offset": 0,
            "slot": "5",
            "type": "t_uint256"
          },
          {
            "astId": 4766,
            "contract": "contracts/TradeableCashflow.sol:TradeableCashflow",
            "label": "appAllowanceUsed",
            "offset": 0,
            "slot": "6",
            "type": "t_int256"
          },
          {
            "astId": 4768,
            "contract": "contracts/TradeableCashflow.sol:TradeableCashflow",
            "label": "appAddress",
            "offset": 0,
            "slot": "7",
            "type": "t_address"
          },
          {
            "astId": 4770,
            "contract": "contracts/TradeableCashflow.sol:TradeableCashflow",
            "label": "appAllowanceToken",
            "offset": 0,
            "slot": "8",
            "type": "t_contract(ISuperfluidToken)5160"
          }
        ],
        "numberOfBytes": "288"
      },
      "t_struct(Map)2131_storage": {
        "encoding": "inplace",
        "label": "struct EnumerableMap.Map",
        "members": [
          {
            "astId": 2126,
            "contract": "contracts/TradeableCashflow.sol:TradeableCashflow",
            "label": "_entries",
            "offset": 0,
            "slot": "0",
            "type": "t_array(t_struct(MapEntry)2123_storage)dyn_storage"
          },
          {
            "astId": 2130,
            "contract": "contracts/TradeableCashflow.sol:TradeableCashflow",
            "label": "_indexes",
            "offset": 0,
            "slot": "1",
            "type": "t_mapping(t_bytes32,t_uint256)"
          }
        ],
        "numberOfBytes": "64"
      },
      "t_struct(MapEntry)2123_storage": {
        "encoding": "inplace",
        "label": "struct EnumerableMap.MapEntry",
        "members": [
          {
            "astId": 2120,
            "contract": "contracts/TradeableCashflow.sol:TradeableCashflow",
            "label": "_key",
            "offset": 0,
            "slot": "0",
            "type": "t_bytes32"
          },
          {
            "astId": 2122,
            "contract": "contracts/TradeableCashflow.sol:TradeableCashflow",
            "label": "_value",
            "offset": 0,
            "slot": "1",
            "type": "t_bytes32"
          }
        ],
        "numberOfBytes": "64"
      },
      "t_struct(Set)2686_storage": {
        "encoding": "inplace",
        "label": "struct EnumerableSet.Set",
        "members": [
          {
            "astId": 2681,
            "contract": "contracts/TradeableCashflow.sol:TradeableCashflow",
            "label": "_values",
            "offset": 0,
            "slot": "0",
            "type": "t_array(t_bytes32)dyn_storage"
          },
          {
            "astId": 2685,
            "contract": "contracts/TradeableCashflow.sol:TradeableCashflow",
            "label": "_indexes",
            "offset": 0,
            "slot": "1",
            "type": "t_mapping(t_bytes32,t_uint256)"
          }
        ],
        "numberOfBytes": "64"
      },
      "t_struct(UintSet)3072_storage": {
        "encoding": "inplace",
        "label": "struct EnumerableSet.UintSet",
        "members": [
          {
            "astId": 3071,
            "contract": "contracts/TradeableCashflow.sol:TradeableCashflow",
            "label": "_inner",
            "offset": 0,
            "slot": "0",
            "type": "t_struct(Set)2686_storage"
          }
        ],
        "numberOfBytes": "64"
      },
      "t_struct(UintToAddressMap)2449_storage": {
        "encoding": "inplace",
        "label": "struct EnumerableMap.UintToAddressMap",
        "members": [
          {
            "astId": 2448,
            "contract": "contracts/TradeableCashflow.sol:TradeableCashflow",
            "label": "_inner",
            "offset": 0,
            "slot": "0",
            "type": "t_struct(Map)2131_storage"
          }
        ],
        "numberOfBytes": "64"
      },
      "t_uint256": {
        "encoding": "inplace",
        "label": "uint256",
        "numberOfBytes": "32"
      },
      "t_uint8": {
        "encoding": "inplace",
        "label": "uint8",
        "numberOfBytes": "1"
      }
    }
  }
}